:020000040000FA
:060000000A128A110C280F
:10000800FE00030EF1000A08F2000A128A111528F0
:100018000A128A110F28F501F60183010A128A11C2
:10002800EE28831203138C1D1A281B287328141218
:10003800141B1F2820282428941F232824282B2811
:100048001308F0007008F60014139413141683169E
:100058000313941A302831284F28141934283528C6
:100068004F28831203131308F0007008F6008C1150
:10007800141683160313141C422843283D288312A0
:1000880003131308F0007008F600A630F000F00B18
:100098004B2800007028941A522853287028141DE1
:1000A800562857287028831203131308F000700885
:1000B800F6008316031314107508831203139300B4
:1000C8001416A630F000F00B6728000083160313FF
:1000D80014186F2870286A28831203138C110C1FB8
:1000E800762877287C281E08F0007008F5000C1385
:1000F80072088A00710E8300FE0E7E0E09008312BC
:1001080003131F14C3309F05831603139F131F1275
:100118009F12831203139F109E283F309F05AE281D
:100128001F083F3940389F00AE281F083F398038E4
:100138009F00AE287408003A0319A328AE28730854
:10014800013A03199128053A031994280C3A03191E
:100158009928AE2808000130831603178800890102
:1001680001308316031385008601870188017030EA
:100178008F040F148F110830F3000030F4000A12B6
:100188008A1183200A128A11831603130C170B177E
:100198008B1750300A128A11D4200A128A110800CB
:1001A800F300730883160313930036308312031386
:1001B8009400803083160313940001309100871552
:1001C80007168B170B17831203138C11831603134F
:1001D8008C1508000A128A11AF200A128A110A1215
:1001E8008A1100210A128A117508831203138600E6
:1001F800F3280A128A110C28831203139F18052961
:1002080006290E290330F300F30B08290B29831262
:0602180003139F1408000F
:04400E00C420FF3F8C
:00000001FF
