:020000040000FA
:060000000A128A110C280F
:10000800FE00030EF1000A08F2000A128A111728EE
:100018000A128A110F28F601F701F801F901830184
:100028000A128A11D928831203138C1D1C281D2833
:1000380075281412141B212822282628941F2528E5
:1000480026282D281308F0007008F90014139413BB
:10005800141683160313941A3228332851281419B6
:10006800362837285128831203131308F000700824
:10007800F9008C11141683160313141C4428452800
:100088003F28831203131308F0007008F900A63004
:10009800F000F00B4D2800007228941A54285528B7
:1000A8007228141D5828592872288312031313081C
:1000B800F0007008F90083160313141076088312F1
:1000C800031393001416A630F000F00B6928000003
:1000D800831603131418712872286C2883120313CB
:1000E8008C110C1F782879287E281E08F0007008CB
:1000F800F8000C130B1C81288228912806188528E3
:1001080086288A280130F0007008F70786188D289D
:100118008E2890280130F7020B1072088A00710EA1
:100128008300FE0E7E0E0900013083160317880037
:100138008901033083160313850003308600870185
:10014800880170308F040F148F11831203138518E0
:10015800AE28AF28C4280830F3000030F4000A1293
:100168008A110D210A128A11831603130C170B1713
:100178008B1750300A128A1139210A128A11D8288D
:10018800851CC728C828D8288B1503308316031365
:1001980096008113011703309500F70130300A12D9
:1001A8008A1139210A128A1108000A128A11982024
:1001B8000A128A11831203138518E328E428EE280B
:1001C8000A128A1153210A128A117808F500750853
:1001D800F600E428851CF128F228DE287708880034
:1001E8007708F5007508F60010307706031DFD281E
:1001F800FE280029F701F228770A031D042905299A
:10020800F2280F30F5007508F700F2280A128A1153
:100218000C28831203131F14C3309F05831603137E
:100228009F131F129F12831203139F1028293F3018
:100238009F0538291F083F3940389F0038291F0873
:100248003F3980389F0038297408003A03192D294E
:1002580038297308013A03191B29053A03191E297D
:100268000C3A0319232938290800F3007308831668
:1002780003139300363083120313940080308316DF
:100288000313940001309100871507168B170B177D
:10029800831203138C11831603138C150800831221
:1002A80003139F185829592961290330F300F30BC8
:0C02B8005B295E29831203139F140800C9
:04400E00C420FF3F8C
:00000001FF
