:020000040000FA
:060000000A128A110C280F
:10000800FE00030EF1000A08F2000A128A113728CE
:100018000A128A110F2883010A128A1113288316DB
:1000280003178801890183160313850103308600AD
:1000380087018801831203138501860187018801DE
:10004800831603130F088F3940388F008F110F1450
:10005800811303309500033096008B178B153328D6
:100068000A128A110C280B1C3A283B284C288312A8
:10007800031306184028412846280130F00070086C
:1000880088074C28861849284A284C2801308802B5
:100098000B1072088A00710E8300FE0E7E0E090096
:04400E00C430FF3F7C
:00000001FF
