:020000040000FA
:060000000A128A110E280D
:10000800FE00030EF2000408F3000A08F4000A12C6
:100018008A118C280A128A11112883133030FD00A6
:100028000130FE000630FF00203084000A128A11D9
:10003800F7200A128A11F901FA0183010A128A11BA
:10004800252801308316031788008901013083169B
:100058000313850003308600870188018312031388
:100068008501860187018801831603130F088F39DC
:1000780040388F008F110F1481130117811201125C
:1000880081110108F83906388100D9308312031329
:1000980081000330831603139500033096000A127B
:1000A8008A1116210A128A118B178B150B178316C2
:1000B80003130C17013083120313B0000030B10092
:1000C8000F307905F70000307A05F8007A08B30098
:1000D8007908B2000430FF00330DB30CB20CFF0BEB
:1000E80070280F303205F50000303305F6009F18F0
:1000F8007E287F286428033083120313B200B20BD2
:100108008328831203139F1464280A128A110E2865
:100118000B1C8F289028A2288312031306189528F1
:1001280096289B280130F00070088807A1288618B7
:100138009E289F28A128013088020B1083120313E0
:100148000C1FA728A828B9281F0CF000700C0F391D
:10015800003A031DB028B128B9281E08F000F101A3
:100168007008F9007108FA000C130B1DBC28BD2893
:10017800EA28DA288601870186157708203E840058
:100188008313000887000230B0000030B100E72870
:100198008601870106157508203E84008313000830
:1001A80087000130B0000030B100E7283108003A7C
:1001B8000319DF28E7283008013A0319BE28033A53
:1001C8000319CC28E728D93081000B1174088A005C
:1001D80073088400720E8300FE0E7E0E09007E08EE
:1001E8008A007F0882000A128A11F3200A128A11F3
:1001F8008000840A04087D0603190034FF0A0319E5
:10020800FE0AF7283F3406345B344F3466346D34C5
:100218007D3407347F34673477347C3439345E3442
:10022800793471343F30831203139F051F14C33090
:100238009F05831603139F131F129F128312031324
:040248009F100800FB
:04400E00C430FF3F7C
:00000001FF
