:020000040000FA
:060000000A128A110E280D
:10000800FE00030EF6000408F7000A08F8000A12BA
:100018008A1127280A128A11112883133030FD000B
:100028000130FE001930FF00203084000A128A11C6
:100038000A210A128A11F901FA01FB01FC01830164
:100048000A128A119C280B1C2A282B283D28831267
:10005800031306183028312836280130F4007408B4
:1000680088073C28861839283A283C280130880215
:100078000B10831203130C1F4228432854281F0C0B
:10008800F400740C0F39003A031D4B284C285428EF
:100098001E08F400F5017408FB007508FC000C1339
:1000A8000B1D572858289328832886018701861511
:1000B8003508F1003408F0000A128A1149210A12A1
:1000C8008A1170088312031387000230B0000030D1
:1000D800B10090288601870106153308F10032081F
:1000E800F0000A128A1149210A128A117008831233
:1000F800031387000130B0000030B10090283108A8
:10010800003A0319882890283008013A0319592819
:10011800033A03196E289028D93081000B1178080A
:100128008A0077088400760E8300FE0E7E0E090092
:1001380001308316031788008901013083160313E1
:100148008500033086008701880183120313850127
:10015800860187018801831603130F088F394038F9
:100168008F008F110F148113011781120112811151
:100178000108F83906388100D93083120313810049
:100188000330831603139500033096000A128A1170
:1001980039210A128A118B178B150B178316031333
:1001A8000C17013083120313B0000030B1000F3078
:1001B8007B05B40000307C05B5007C08B8007B08DE
:1001C800B7000430FF00380DB80CB70CFF0BE72858
:1001D8000F303705B20000303805B3000A128A1113
:1001E80029210A128A118312031308081E06031D07
:1001F800FE28FF2801298514DB288510DB280A1230
:100208008A110E287E088A007F0882000A128A1145
:1002180006210A128A118000840A04087D0603193F
:100228000034FF0A0319FE0A0A293F3406345B34F6
:100238004F3466346D347D3407347F346734773413
:100248007C3439345E3479347134831203139F1843
:100258002E292F293829033083120313B600B60B31
:100268003329831203139F1408003F3083120313AA
:100278009F051F14C3309F05831603139F131F1276
:100288009F12831203139F1008007008203E8400F9
:1002980083130008F200F3017208F0007308F100FC
:0202A80008004C
:04400E00C430FF3F7C
:00000001FF
