:020000040000FA
:060000000A128A110C280F
:10000800FE00030EF1000A08F2000A128A15442DB8
:100018000A128A110F28F801F901FA0183135330E3
:10002800840064300A128A1517240A128A1183017F
:100038000A128A11802B831203132D088039B2000B
:100048003208B7002D08B2003207B3003308BD00EC
:10005800AC1F2F28302831283D143D0803193528B6
:10006800362845283D0A031D3A283B2843280030F6
:10007800AD000030AC000030AB000030AA00AC1777
:100088004D280030AD000030AC000030AB0000302F
:10009800AA0031088039B2003208B7063108B20028
:1000A8003207B3003308BC00B01F5B285C285D280A
:1000B8003C143C0803196128622871283C0A031D76
:1000C800662867286F280030B1000030B000003083
:1000D800AF000030AE00B01779280030B100003012
:1000E800B0000030AF000030AE003C0803197D2896
:1000F8007E2883283D08031D822883288C28003009
:10010800AD000030AC000030AB000030AA007F2BFF
:100118002A08B2003208F30030080A128A15B324FC
:100128000A128A11740883120313C3007308C200E9
:100138004208B200B301B401B5013508BB00340868
:10014800BA003308B9003208B8004308B200B30156
:10015800B401B5013508C1003408C0003308BF0038
:100168003208BE002B08B2003208F3002F080A122A
:100178008A15B3240A128A11740883120313C30060
:100188007308C2004208B200B301B401B5013208D5
:10019800B807330803110318013E0319D428B90717
:1001A800340803110318013E0319DB28BA07350880
:1001B80003110318013E0319E228BB074308B200E4
:1001C800B301B401B5013208BE073308031103189F
:1001D800013E0319F028BF07340803110318013E34
:1001E8000319F728C007350803110318013E03193E
:1001F800FE28C1072C08B2003208F3002E080A12A4
:100208008A15B3240A128A11740883120313C300CF
:100218007308C2004208B200B301B401B501320844
:10022800B807330803110318013E03191C29B9073D
:10023800340803110318013E03192329BA073508A6
:1002480003110318013E03192A29BB074308B2000A
:10025800B301B401B5013208BE073308031103180E
:10026800013E03193829BF07340803110318013E5A
:1002780003193F29C007350803110318013E031964
:100288004629C1070830B2000310B80DB90DBA0DE0
:10029800BB0DB20B48292B08B2003208F3002E0818
:1002A8000A128A15B3240A128A11740883120313D6
:1002B800C3007308C2004208B2004308B300B40187
:1002C800B5013208B807330803110318013E0319B2
:1002D8006E29B907340803110318013E031975295B
:1002E800BA07350803110318013E03197C29BB0717
:1002F8002A08B2003208F3002F080A128A15B3241C
:100308000A128A11740883120313C3007308C20007
:100318004208B2004308B300B401B5013208B80777
:10032800330803110318013E03199B29B907340840
:1003380003110318013E0319A229BA07350803114E
:100348000318013E0319A929BB070830B20003109E
:10035800B80DB90DBA0DBB0DB20BAB292A08B20006
:100368003208F3002E080A128A15B3240A128A11D9
:10037800740883120313C3007308C2004208B20052
:100388004308B300B401B5013208B80733080311B4
:100398000318013E0319D129B907340803110318BA
:1003A800013E0319D829BA07350803110318013E7D
:1003B8000319DF29BB072B08B2003208F300300805
:1003C8000A128A15B3240A128A11740883120313B5
:1003D800C3007308C2004208B2004308B300B40166
:1003E800B5013208BE07330803110318013E03198B
:1003F800FE29BF07340803110318013E0319052A13
:10040800C007350803110318013E03190C2AC10758
:100418002C08B2003208F3002F080A128A15B324F8
:100428000A128A11740883120313C3007308C200E6
:100438004208B2004308B300B401B5013208BE0750
:10044800330803110318013E03192B2ABF07340888
:1004580003110318013E0319322AC0073508031196
:100468000318013E0319392AC1072C08B2003208C3
:10047800F30030080A128A15B3240A128A11740884
:1004880083120313C3007308C2004208B200430872
:10049800B300B401B50108300310B20DB30DB40DAB
:1004A800B50DFF3E031D502A3208BE07330803115D
:1004B8000318013E0319612ABF0734080311031802
:1004C800013E0319682AC007350803110318013EC5
:1004D80003196F2AC1073808B2003908B3003A086F
:1004E800B4003B08B50018300310B50CB40CB30CBD
:1004F800B20CFF3E031D782A3208BE0733080311E9
:100508000318013E0319892ABF0734080311031889
:10051800013E0319902AC007350803110318013E4C
:100528000319972AC1070830B2000310B80DB90D96
:10053800BA0DBB0DB20B992A3D083C07B200B301B6
:10054800B30D3208823EC20033080318013EFF3E55
:10055800C300CB2A0130B2000310BE0DBF0DC00D81
:10056800C10DB20BB02ABB1FBA2ABB2ABC2A3E1443
:100578000130B2000310B80DB90DBA0DBB0DB20BA6
:10058800BE2AFF30C2070318C30AFF30C307C01FC3
:10059800CE2ACF2AAE2ABC01BB1FD32AD42AF02ADE
:1005A800FF303805B200FF303905B300FF303A0597
:1005B800B4007F303B05B5003508340433043204F9
:1005C8000319E72AE82AEB2ABC01BC0AF02A3E1CD8
:1005D800EE2AEF2AF02AE82A3C080319F42AF52A19
:1005E800262B0130BE07003003180130BF0700304A
:1005F80003180130C007003003180130C107411C3F
:10060800062B072B262B3E08B2003F08B3004008F4
:10061800B4004108B5000130B600350DB50CB40C76
:10062800B30CB20CB60B112B3508C1003408C0004E
:100638003308BF003208BE000130C2070318C30ADE
:100648000030C3074308803AFF0080307F02031D53
:100658002F2BFF304202031C322B332B3E2B7F30D3
:1006680083120313C1008030C0000030BF00003087
:10067800BE00732B831203134308803AFF008030B7
:100688007F02031D492B0130420203184C2B4D2BCE
:10069800592B003083120313C1000030C000003012
:1006A800BF000030BE00B701732B8312031342084A
:1006B800B2003208BD00FF30BE05FF30BF057F30F5
:1006C800C0050030C1053D1C6A2B6B2B6C2BC01775
:1006D8003D08B2000310320CB3003308C1003708DC
:1006E800B2003208C1044108AD004008AC003F0820
:1006F800AB003E08AA0008000330831603178800E1
:100708008901033083160313850086018030870032
:1007180088010F088F3960388F008F110F1404304B
:10072800F3000030F4000A128A15DC240A128A1138
:10073800043083120313A0000030A1000130A2008E
:100748000030A3000130A4000030A5000A128A1569
:1007580087250A128A110B17831603130C178C1698
:10076800831203139F140A128A119C270A128A11F2
:10077800831203138C128B170A128A151F240A126C
:100788008A11F601F60A01300A128A154E240A1255
:100798008A114C30F5008030F6000A128A15CC25F3
:1007A8000A128A110B30F3008030F4000A128A15FD
:1007B8008B240A128A112C30F3008030F4000A12BC
:1007C8008A158B240A128A110A128A156C240A12B5
:1007D8008A11831203135C0886005E08CF00D001DB
:1007E800D101D2015208F6005108F5005008F40072
:1007F8004F08F30001300A128A1151260A128A1191
:10080800760883120313B1007508B0007408AF00AE
:100818007308AE003C30AD00A030AC00A530AB0092
:100828002730AA000A128A111F200A128A1183127D
:1008380003132D08C7002C08C6002B08C5002A087A
:10084800C4000A128A1584270A128A118312031314
:100858004508D8004408D7005D08CF00D001D10171
:10086800D2015208F6005108F5005008F4004F086C
:10087800F30001300A128A1151260A128A117608E9
:1008880083120313B1007508B0007408AF00730831
:10089800AE003C30AD00A030AC00A530AB00273036
:1008A800AA000A128A111F200A128A11831203133E
:1008B8002D08C7002C08C6002B08C5002A08C4004C
:1008C8000A128A1584270A128A118312031345080B
:1008D800D6004408D5005C080A128A15B3260A1205
:1008E8008A11F601F60A02300A128A154E240A12F3
:1008F8008A116B3083120313CF004F08A9005808E0
:10090800AB005708AA005F300A128A1167250A123D
:100918008A115F30F5000030F6000A128A15CC25DE
:100928000A128A11713083120313CF004F08A900ED
:100938005608AB005508AA005F300A128A116725CD
:100948000A128A115F30F5000030F6000A128A1583
:10095800CC250A128A11773083120313CF004F086F
:10096800A9005B08D000D1015008AA005108AB00CB
:100978005F300A128A1167250A128A115F30F50062
:100988000030F6000A128A15CC250A128A1179302D
:1009980083120313CF004F08A9005A08D000D101D1
:1009A8005008AA005108AB005F300A128A11672567
:1009B8000A128A115F30F5000030F6000A128A1513
:1009C800CC250A128A11793083120313CF004F08FD
:1009D800A9005908D000D1015008AA005108AB005D
:1009E8005F300A128A1167250A128A115F30F500F2
:1009F8000030F6000A128A15CC250A128A118312D1
:100A0800031353035404031D0A2D0B2DE82BD301A4
:100A1800D4017C30F3008030F4000A128A158B244C
:100A28000A128A116B3083120313CF004F08A900F2
:100A38005808AB005708AA005F300A128A116725C8
:100A48000A128A116330F3008030F4000A128A1502
:100A58008B240A128A115F30F3000030F4000A1266
:100A68008A158B240A128A116B3083120313CF0064
:100A78004F08A9005608AB005508AA005F300A12B3
:100A88008A1167250A128A115A30F3008030F4005F
:100A98000A128A158B240A128A115F30F30000307B
:100AA800F4000A128A158B240A128A117C30F3008A
:100AB8008030F4000A128A158B240A128A11E82B56
:100AC8000A128A110C2883120313B4002A30AC00CE
:100AD8002C08AF003A2E253035060319742D752DD4
:100AE800812D3508AC00340884002C08831380005D
:100AF8000130AC002C08B4073A2EB0010130A90728
:100B0800FF30290784000A128A1117270A128A114E
:100B1800B500AC00AD012D08003A0319942D3A2E0A
:100B28002C08003A03194C2E643A03199F2D0D3AEC
:100B380003199F2D3A2E2F08840083130008B20052
:100B4800840A0008B3000230AC002C08AF07B31FBA
:100B5800AE2DAF2DB82D0330AC002C08B004B2096F
:100B6800B309B20A0319B30AB501B50A3508AC00CE
:100B78002C07013E84000A128A1117270A128A11CB
:100B8800AD000A128A1117270A128A11AE002E0820
:100B98003302031DD12D2D0832020318D42DD52D73
:100BA800D62DE02D0130AC002C08B50705303506F0
:100BB800031DDF2DE02DBA2D300803390319E52D6B
:100BC800E62DF12D2D30AC00340884002C08831359
:100BD80080000130AC002C08B4073508AC002C08A4
:100BE800B100312E0A30A3000030A4003108AC0057
:100BF8002C07013E84000A128A1117270A128A114B
:100C0800F3000A128A1117270A128A11F40033080E
:100C1800F6003208F5000A128A1512260A128A11FD
:100C2800740883120313A6007308A5000A128A1514
:100C380008250A128A11831203132308303EAD00D7
:100C48002D08B5003508AC00340884002C0883133F
:100C580080000130AC002C08B407FF30AC002C0831
:100C6800B107310A031D392E3A2EF62D0130A90796
:100C7800FF30290784000A128A1117270A128A11DD
:100C8800AC002C08B5003508031D4B2E4C2E6F2DDB
:100C98003408840083138001080083120313A4001E
:100CA80024080319582E592E6D2EF61F5C2E5D2E22
:100CB8006D2E7309A6007409A7007509A8007609A6
:100CC800A900A60A0319A70A0319A80A0319A90A59
:100CD800752E7608A9007508A8007408A70073087F
:100CE800A6007608750474047304031D7C2E7D2EFB
:100CF800862E0030F6000030F5000030F400003099
:100D0800F3000C2F9630A0002008A500982E013083
:100D1800A0002008A50701300310A90CA80CA70CF7
:100D2800A60CFF3E031D902EFE302905031D9D2EA7
:100D38009E2E8B2EBA2E0130A0002008A507013068
:100D4800A607003003180130A70700300318013048
:100D5800A807003003180130A90701300310A90CB7
:100D6800A80CA70CA60CFF3E031DB22EFF302905C8
:100D7800031DBF2EC02E9F2ECC2E0130A5020130A0
:100D8800A0000310A60DA70DA80DA90DA00BC52E38
:100D9800A81BCF2ED02ED62E023025020318D52E12
:100DA800D62EC12E2518D92EDA2EE22EFF30A60512
:100DB800FF30A7057F30A805FF30A9050310A50C53
:100DC8002508A000A101A201A30118300310A00D5D
:100DD800A10DA20DA30DFF3E031DEA2E2008A604B7
:100DE8002108A7042208A8042308A9042408031931
:100DF800FE2EFF2E042FF61F022F032F042FA917F4
:100E08002908F6002808F5002708F4002608F3004A
:100E18000800FF1B172F83137F1883170008840A05
:100E28000319FF0A080007308A000408840A8207A9
:100E38000034013400340A34003464340034E834B3
:100E480003341034273450347234653473346934BD
:100E58006F346E34653420342A342034703461346D
:100E68007234613420346D346F34733474347234B2
:100E78006134723420346C346F34733420347034F9
:100E88006F347434203400344F3420347034723466
:100E98006534733469346F346E34653420342B34DC
:100EA80020342D3420347034613472346134203469
:100EB80065346C34203463346F346E347434613484
:100EC80064346F3472340034533431343A34203457
:100ED8002034533432343A342034203453343334C5
:100EE8003A340034203450346F347434203432347B
:100EF8003A342034003450346F347434203431346C
:100F08003A342034003425346434563420342034C0
:100F180000342034253464345634203400342034EA
:100F280020342534643400340D3420340034003443
:100F38008312031388011A30F700F830F600F60B15
:100F4800A32FF70BA32F000030300A128A153B2479
:100F58000A128A110730F7007D30F600F60BB22F1F
:100F6800F70BB22F30300A128A153B240A128A1165
:100F78000F30F7004730F600F60BC02FF70BC02FE5
:100F8800C52F30300A128A153B240A128A113830CC
:100F98000A128A153B240A128A1110300A128A157D
:100FA8003B240A128A1101300A128A153B240A12BC
:100FB8008A1106300A128A153B240A128A11103047
:100FC8000A128A153B240A128A110C300A128A1551
:100FD8003B240A128A118230F700DD30F600F60B46
:0A0FE800F32FF70BF32FF82F08008A
:10182E0064008001840A0406031900340406182C8F
:10183E0000300A128A153B240A128A1501300A1248
:10184E008A153B240A128A150800F400831203132A
:10185E0007167408880087160D30F300F30B352C2D
:10186E008312031387120800F50083120313071265
:10187E007508880087160730F4007D30F300F30BEF
:10188E00462CF40B462C8312031387120800F70024
:10189E007703031D532C542C5D2C76080F3980389A
:1018AE000A128A153B240A128A156B2C023077060F
:1018BE00031D622C632C6B2C76080F39C0380A126C
:1018CE008A153B240A128A150800831203139F18E7
:1018DE00712C722C8A2C1F0CF300730C0F39003AEA
:1018EE00031D7A2C7B2C802C1F08C33904389F00D3
:1018FE00822CC3309F051030F300F30B842C0000B4
:10190E00831203139F140800A22C7408FF0073089F
:10191E0084000A128A110D270A128A15990083165D
:10192E000313981C9B2C9C2C962C0130F307031848
:10193E00F40A0030F407740883120313FF007308CF
:10194E0084000A128A110D270A128A15003A031D05
:10195E00B12CB22C8C2C080083120313A400A0010E
:10196E00A1017308F500F6017508A2007608A30020
:10197E00241CC22CC32CC92C2208A0070318A10AB0
:10198E002308A10701300310A20DA30DFF3E031D76
:10199E00CA2C0310A40C2408031DD62CD72CBF2C44
:1019AE002108F4002008F3000800831203131F140B
:1019BE00C3309F05831603139F131F129F128312AA
:1019CE0003139F10F72C3F309F05072D1F083F393B
:1019DE0040389F00072D1F083F3980389F00072D84
:1019EE007408003A0319FC2C072D7308013A0319E9
:1019FE00EA2C053A0319ED2C0C3A0319F22C072D9B
:101A0E000800831203132308240403190F2D102D2D
:101A1E003F2DA801A80A1E2D01300310A30DA40D01
:101A2E00FF3E031D142D0130A7002708A807A41F91
:101A3E00212D222D132D24082602031D282D2308C7
:101A4E002502031C2B2D2C2D322D2308A502240834
:101A5E00031CA603A60201300310A40CA30CFF3E28
:101A6E00031D332D0130A802031D3E2D3F2D222DC7
:101A7E002608A4002508A3000800831203130C1FD8
:101A8E00492D4A2D5D2D1F0CF000700C0F39003AB8
:101A9E00031D522D532D582D1E08F0007008DE0028
:101AAE005C2D1E08F0007008DD000C138C1E602DDE
:101ABE00612D802D2B301A06031D662D672D6C2D82
:101ACE000130F0007008DC077F2D2D301A06031D43
:101ADE00712D722D752D0130DC027F2D2A301A06E4
:101AEE00031D7A2D7B2D7F2D0130D3000030D400C5
:101AFE008C1272088A00710E8300FE0E7E0E090093
:101B0E0083120313981783160313181218138312D4
:101B1E0003131813A42D19308316031399001815E7
:101B2E00831603178711B12D0C30831603139900FA
:101B3E001811831603178711B12D2108003A0319C6
:101B4E00A92DB12D2008043A0319922D0C3A031930
:101B5E009B2DB12D8312031322032304031DB82DD5
:101B6E00B92DBD2D831603139816C02D831603139E
:101B7E0098128312031324032504031DC72DC82DA9
:101B8E00CA2D1816CB2D1812080083120313A301A9
:101B9E00A401F52D23087507A1007608A0000318EF
:101BAE00A00AA31FDB2DA003831203132008A2009B
:101BBE002208FF00210884000A128A110D270A123A
:101BCE008A150A128A152C240A128A1501308312DC
:101BDE000313A3070318A40A0030A40723087507EC
:101BEE00A1007608A0000318A00AA31FFF2DA003D2
:101BFE00831203132008A2002208FF00210884008C
:101C0E000A128A110D270A128A15003A031D102E88
:101C1E00112ED12D080083120313A101A201730806
:101C2E00740403191B2E1C2E532EA001A00A2A2E5B
:101C3E0001300310F30DF40DFF3E031D202E013075
:101C4E00F7007708A007F41F2D2E2E2E1F2E013021
:101C5E000310A10DA20DFF3E031D2F2E7408760258
:101C6E00031D3B2E73087502031C3E2E3F2E462E7F
:101C7E007308F5027408031CF603F60221140130F2
:101C8E000310F40CF30CFF3E031D472E0130A0028F
:101C9E00031D522E532E2E2E2208F4002108F3007F
:101CAE00080083120313A101F61F5E2E5F2E662E0F
:101CBE00F509F609F50A0319F60AA101A10AF41F9E
:101CCE00692E6A2E6F2EF309F409F30A0319F40A2A
:101CDE00730874040319742E752EA42EA001A00A85
:101CEE00832E01300310F30DF40DFF3E031D792EEC
:101CFE000130F7007708A007F41F862E872E782E66
:101D0E0074087602031D8D2E73087502031C902E27
:101D1E00912E972E7308F5027408031CF603F60233
:101D2E0001300310F40CF30CFF3E031D982E01300E
:101D3E00A002031DA32EA42E872E21080319A82E60
:101D4E00A92EAE2EF509F609F50A0319F60A76083C
:101D5E00F4007508F300080083120313B00064301A
:101D6E00A2000030A3003008AB00AC012B08A40089
:101D7E002C08A5000A128A151B270A128A1583122F
:101D8E0003132208AD002D08DB000A30A20000303C
:101D9E00A3003008AB00AC012B08F5002C08F600B0
:101DAE006430F3000030F4000A128A1558260A1225
:101DBE008A15740883120313A5007308A4000A126F
:101DCE008A151B270A128A15831203132208AD00E7
:101DDE002D08DA003008AB00AC012B08F5002C08FA
:101DEE00F6006430F3000030F4000A128A1558260B
:101DFE000A128A15740883120313AF007308AE001B
:101E0E000A30F3000030F4002F08F6002E08F5001B
:101E1E000A128A1558260A128A157308831203139A
:101E2E00AB002B08D900080083120313A801A31FCF
:101E3E00212F222F292FA209A309A20A0319A30ACF
:101E4E00A801A80AA51F2C2F2D2F362FA409A509EE
:101E5E00A40A0319A50A0130A6002608A806A9019E
:101E6E00AA012208230403193D2F3E2F752FA70127
:101E7E00A70A4C2F01300310A20DA30DFF3E031D28
:101E8E00422F0130A6002608A707A31F4F2F502F61
:101E9E00412F01300310A90DAA0DFF3E031D512F36
:101EAE0023082502031D5D2F22082402031C602F28
:101EBE00612F682F2208A4022308031CA503A50284
:101ECE00291401300310A30CA20CFF3E031D692F31
:101EDE000130A702031D742F752F502F28080319E8
:101EEE00792F7A2F7F2FA909AA09A90A0319AA0AFD
:101EFE002A08A3002908A200080003108312031366
:101F0E00460D470DC8004808CE004E08031D902F01
:101F1E00912F9A2F0030C7000030C6000030C50048
:101F2E000030C400FF2F4408C8004508C900460809
:101F3E00CA004708CB001F300310CB0CCA0CC90CCB
:101F4E00C80CFF3E031DA32F4808CC004C08CD0043
:101F5E00C617FF30C405FF30C505FF30C60500307B
:101F6E00C7059630CE02CE1FBD2FBE2FD82F4E08DE
:101F7E00803A973E0318C42FC52FC62F912F0130DC
:101F8E000310C70CC60CC50CC40CFF3E031DC72F97
:101F9E000130C8004808CE07031DD62FD72FC62FF5
:101FAE00EF2F20304E02031CDD2FDE2FEA2F912F54
:101FBE000130C8000310C40DC50DC60DC70DC80BEA
:101FCE00E12F0130CE024E08031DEE2FEF2FDF2F33
:101FDE004D080319F32FF42FFF2FC409C509C609A5
:101FEE00C709C40A0319C50A0319C60A0319C70A81
:021FFE000800D9
:04400E00C420FF3F8C
:00000001FF
