:020000040000FA
:060000000A128A110C280F
:10000800FE00030EF1000A08F2000A128A15032EF8
:100018000A128A110F28F801F901FA0183135430E2
:10002800840070300A128A153A250A128A11A03003
:100038008400B4300A128A153A250A128A118301FB
:100048000A128A11882B831203132D088039B200F3
:100058003208B7002D08B2003207B3003308BD00DC
:10006800AC1F3728382839283D143D0803193D2886
:100078003E284D283D0A031D422843284B280030BE
:10008800AD000030AC000030AB000030AA00AC1767
:1000980055280030AD000030AC000030AB00003017
:1000A800AA0031088039B2003208B7063108B20018
:1000B8003207B3003308B800B01F632864286528E6
:1000C80038143808031969286A287928380A031D5A
:1000D8006E286F2877280030B1000030B00000305B
:1000E800AF000030AE00B01781280030B1000030FA
:1000F800B0000030AF000030AE0038080319852882
:1001080086288B283D08031D8A288B2894280030D0
:10011800AD000030AC000030AB000030AA00872BE7
:100128002A08B2003208F30030080A128A15AE25F0
:100138000A128A11740883120313C3007308C200D9
:100148004208B200B301B401B5013508BC00340857
:10015800BB003308BA003208B9004308B200B30143
:10016800B401B5013508C1003408C0003308BF0028
:100178003208BE002B08B2003208F3002F080A121A
:100188008A15AE250A128A11740883120313C30054
:100198007308C2004208B200B301B401B5013208C5
:1001A800B907330803110318013E0319DC28BA07FD
:1001B800340803110318013E0319E328BB07350867
:1001C80003110318013E0319EA28BC074308B200CB
:1001D800B301B401B5013208BE073308031103188F
:1001E800013E0319F828BF07340803110318013E1C
:1001F8000319FF28C007350803110318013E031926
:100208000629C1072C08B2003208F3002E080A128A
:100218008A15AE250A128A11740883120313C300C3
:100228007308C2004208B200B301B401B501320834
:10023800B907330803110318013E03192429BA0723
:10024800340803110318013E03192B29BB0735088D
:1002580003110318013E03193229BC074308B200F1
:10026800B301B401B5013208BE07330803110318FE
:10027800013E03194029BF07340803110318013E42
:1002880003194729C007350803110318013E03194C
:100298004E29C1070830B2000310B90DBA0DBB0DC5
:1002A800BC0DB20B50292B08B2003208F3002E08FF
:1002B8000A128A15AE250A128A11740883120313CA
:1002C800C3007308C2004208B2004308B300B40177
:1002D800B5013208B907330803110318013E0319A1
:1002E8007629BA07340803110318013E03197D293A
:1002F800BB07350803110318013E03198429BC07FD
:100308002A08B2003208F3002F080A128A15AE250F
:100318000A128A11740883120313C3007308C200F7
:100328004208B2004308B300B401B5013208B90766
:10033800330803110318013E0319A329BA07340827
:1003480003110318013E0319AA29BB073508031135
:100358000318013E0319B129BC070830B200031085
:10036800B90DBA0DBB0DBC0DB20BB3292A08B200EA
:100378003208F3002E080A128A15AE250A128A11CD
:10038800740883120313C3007308C2004208B20042
:100398004308B300B401B5013208B90733080311A3
:1003A8000318013E0319D929BA07340803110318A1
:1003B800013E0319E029BB07350803110318013E64
:1003C8000319E729BC072B08B2003208F3003008EC
:1003D8000A128A15AE250A128A11740883120313A9
:1003E800C3007308C2004208B2004308B300B40156
:1003F800B5013208BE07330803110318013E03197B
:10040800062ABF07340803110318013E03190D2AF1
:10041800C007350803110318013E0319142AC10740
:100428002C08B2003208F3002F080A128A15AE25EC
:100438000A128A11740883120313C3007308C200D6
:100448004208B2004308B300B401B5013208BE0740
:10045800330803110318013E0319332ABF07340870
:1004680003110318013E03193A2AC007350803117E
:100478000318013E0319412AC1072C08B2003208AB
:10048800F30030080A128A15AE250A128A11740878
:1004980083120313C3007308C2004208B200430862
:1004A800B300B401B50108300310B20DB30DB40D9B
:1004B800B50DFF3E031D582A3208BE073308031145
:1004C8000318013E0319692ABF07340803110318EA
:1004D800013E0319702AC007350803110318013EAD
:1004E8000319772AC1073908B2003A08B3003B0854
:1004F800B4003C08B50018300310B50CB40CB30CAC
:10050800B20CFF3E031D802A3208BE0733080311D0
:100518000318013E0319912ABF0734080311031871
:10052800013E0319982AC007350803110318013E34
:1005380003199F2AC1070830B2000310B90DBA0D7C
:10054800BB0DBC0DB20BA12A3D083807B200B301A0
:10055800B30D3208823EC20033080318013EFF3E45
:10056800C300D32A0130B2000310BE0DBF0DC00D69
:10057800C10DB20BB82ABC1FC22AC32AC42A3E1412
:100588000130B2000310B90DBA0DBB0DBC0DB20B92
:10059800C62AFF30C2070318C30AFF30C307C01FAB
:1005A800D62AD72AB62AB801BC1FDB2ADC2AF82AA1
:1005B800FF303905B200FF303A05B300FF303B0584
:1005C800B4007F303C05B5003508340433043204E8
:1005D8000319EF2AF02AF32AB801B80AF82A3E1CB0
:1005E800F62AF72AF82AF02A38080319FC2AFD2ADD
:1005F8002E2B0130BE07003003180130BF07003032
:1006080003180130C007003003180130C107411C2E
:100618000E2B0F2B2E2B3E08B2003F08B3004008CC
:10062800B4004108B5000130B600350DB50CB40C66
:10063800B30CB20CB60B192B3508C1003408C00036
:100648003308BF003208BE000130C2070318C30ACE
:100658000030C3074308803AFF0080307F02031D43
:10066800372BFF304202031C3A2B3B2B462B7F30A3
:1006780083120313C1008030C0000030BF00003077
:10068800BE007B2B831203134308803AFF0080309F
:100698007F02031D512B013042020318542B552BA6
:1006A800612B003083120313C1000030C0000030FA
:1006B800BF000030BE00B7017B2B83120313420832
:1006C800B2003208BD00FF30BE05FF30BF057F30E5
:1006D800C0050030C1053D1C722B732B742BC0174D
:1006E8003D08B2000310320CB3003308C1003708CC
:1006F800B2003208C1044108AD004008AC003F0810
:10070800AB003E08AA0008000330831603178800D0
:100718008901033083160313850086018030870022
:1007280088010F088F3960388F008F110F1404303B
:10073800F3000030F4000A128A15D7250A128A112C
:10074800043083120313A0000030A1000130A2007E
:100758000030A3000130A4000030A5000A128A1559
:1007680077260A128A110B17831603130C178C1697
:10077800831203139F140A128A15A3270A128A11D7
:10078800831203138C128B170A128A1542250A1238
:100798008A11F601F60A01300A128A1571250A1221
:1007A8008A110B30F5008030F6000A128A15BC2633
:1007B8000A128A110A128A158F250A128A118312BF
:1007C8000313590886005B08CF00D001D101D2017C
:1007D8005208F6005108F5005008F4004F08F300DD
:1007E80001300A128A111D260A128A11760883120C
:1007F8000313B1007508B0007408AF007308AE00A9
:100808003C30AD00A030AC00A530AB002730AA00CA
:100818000A128A1127200A128A11831203132D083B
:10082800C7002C08C6002B08C5002A08C4000A12F5
:100838008A11D9260A128A11831203134408D30095
:100848005308D8005A08CF00D001D101D20152086C
:10085800F6005108F5005008F4004F08F300013085
:100868000A128A111D260A128A11760883120313A6
:10087800B1007508B0007408AF007308AE003C30D2
:10088800AD00A030AC00A530AB002730AA000A129A
:100898008A1127200A128A11831203132D08C70010
:1008A8002C08C6002B08C5002A08C4000A128A11A1
:1008B800D9260A128A11831203134408D300530855
:1008C800D7001930CF004F08A9005808D000D1012F
:1008D8005008AA005108AB005C300A128A1133256F
:1008E8000A128A11193083120313CF004F08A90086
:1008F8005708D000D1015008AA005108AB00A03019
:100908000A128A1133250A128A11643083120313DA
:10091800A2000030A3005908CF00D0014F08A4005E
:100928005008A5000A128A1155270A128A11831243
:1009380003132208D1005108D6000A30A200003063
:10094800A3005908CF00D0014F08F5005008F60061
:100958006430F3000030F4000A128A1548270A129E
:100968008A11740883120313A5007308A4000A12DD
:100978008A1155270A128A11831203132208D100FB
:100988005108D5005908CF00D0014F08F50050088C
:10099800F6006430F3000030F4000A128A15482784
:1009A8000A128A11740883160313B5007308B40079
:1009B8000A30F3000030F4003508F6003408F5007A
:1009C8000A128A1548270A128A1173088312031318
:1009D800CF004F08D4000230CF004F08F600023095
:1009E8000A128A1571250A128A115C30F500003046
:1009F800F6000A128A15BC260A128A11A030F500E0
:100A08000030F6000A128A15BC260A128A110B3029
:100A180083120313CF004F08F60002300A128A151A
:100A280071250A128A118312031356080A128A15AD
:100A38004F250A128A118312031355080A128A15C0
:100A48004F250A128A118312031354080A128A15B1
:100A58004F250A128A11DE2B0A128A110C288312DA
:100A68000313B4002A30AC002C08AF00062E253042
:100A780035060319402D412D4D2D3508AC0034089D
:100A880084002C08831380000130AC002C08B407C4
:100A9800062EB0010130A907FF30290784000A1289
:100AA8008A11C8270A128A11B500AC00AD012D08B9
:100AB800003A0319602D062E2C08003A0319182E47
:100AC800643A03196B2D0D3A03196B2D062E2F0866
:100AD800840083130008B200840A0008B3000230BF
:100AE800AC002C08AF07B31F7A2D7B2D842D033063
:100AF800AC002C08B004B209B309B20A0319B30A4E
:100B0800B501B50A3508AC002C07013E84000A126D
:100B18008A11C8270A128A11AD000A128A11C82739
:100B28000A128A11AE002E083302031D9D2D2D08CE
:100B380032020318A02DA12DA22DAC2D0130AC003E
:100B48002C08B50705303506031DAB2DAC2D862DB9
:100B5800300803390319B12DB22DBD2D2D30AC004D
:100B6800340884002C08831380000130AC002C0862
:100B7800B4073508AC002C08B100FD2D0A30A300DD
:100B88000030A4003108AC002C07013E84000A1292
:100B98008A11C8270A128A11F3000A128A11C82773
:100BA8000A128A11F4003308F6003208F5000A1216
:100BB8008A1502270A128A11740883120313A600E1
:100BC8007308A5000A128A153B260A128A11831295
:100BD80003132308303EAD002D08B5003508AC00DE
:100BE800340884002C08831380000130AC002C08E2
:100BF800B407FF30AC002C08B107310A031D052EDD
:100C0800062EC22D0130A907FF30290784000A12D9
:100C18008A11C8270A128A11AC002C08B5003508B9
:100C2800031D172E182E3B2D3408840083138001D2
:100C3800080083120313A40024080319242E252E68
:100C4800392EF61F282E292E392E7309A60074096D
:100C5800A7007509A8007609A900A60A0319A70A1A
:100C68000319A80A0319A90A412E7608A9007508CC
:100C7800A8007408A7007308A60076087504740411
:100C88007304031D482E492E522E0030F600003002
:100C9800F5000030F4000030F300D82E9630A000A4
:100CA8002008A500642E0130A0002008A507013007
:100CB8000310A90CA80CA70CA60CFF3E031D5C2E64
:100CC800FE302905031D692E6A2E572E862E013007
:100CD800A0002008A5070130A6070030031801303E
:100CE800A707003003180130A807003003180130A7
:100CF800A90701300310A90CA80CA70CA60CFF3EED
:100D0800031D7E2EFF302905031D8B2E8C2E6B2E86
:100D1800982E0130A5020130A0000310A60DA70DE2
:100D2800A80DA90DA00B912EA81B9B2E9C2EA22EC0
:100D3800023025020318A12EA22E8D2E2518A52ECD
:100D4800A62EAE2EFF30A605FF30A7057F30A805DA
:100D5800FF30A9050310A50C2508A000A101A201D8
:100D6800A30118300310A00DA10DA20DA30DFF3E85
:100D7800031DB62E2008A6042108A7042208A804EB
:100D88002308A90424080319CA2ECB2ED02EF61F37
:100D9800CE2ECF2ED02EA9172908F6002808F50048
:100DA8002708F4002608F300080003108312031331
:100DB800460D470DC8004808CE004E08031DE52E15
:100DC800E62EEF2E0030C7000030C6000030C50008
:100DD8000030C400542F4408C8004508C90046081C
:100DE800CA004708CB001F300310CB0CCA0CC90C33
:100DF800C80CFF3E031DF82E4808CC004C08CD0057
:100E0800C617FF30C405FF30C505FF30C6050030E2
:100E1800C7059630CE02CE1F122F132F2D2F4E0846
:100E2800803A973E0318192F1A2F1B2FE62E0130F0
:100E38000310C70CC60CC50CC40CFF3E031D1C2FA9
:100E48000130C8004808CE07031D2B2F2C2F1B2F5D
:100E5800442F20304E02031C322F332F3F2FE62E13
:100E68000130C8000310C40DC50DC60DC70DC80B51
:100E7800362F0130CE024E08031D432F442F342F46
:100E88004D080319482F492F542FC409C509C6090D
:100E9800C709C40A0319C50A0319C60A0319C70AE8
:100EA800080083120313A801A31F5B2F5C2F632F75
:100EB800A209A309A20A0319A30AA801A80AA51F3F
:100EC800662F672F702FA409A509A40A0319A50A7C
:100ED8000130A6002608A806A901AA0122082304B1
:100EE8000319772F782FAF2FA701A70A862F013074
:100EF8000310A20DA30DFF3E031D7C2F0130A60099
:100F08002608A707A31F892F8A2F7B2F01300310DC
:100F1800A90DAA0DFF3E031D8B2F23082502031DD3
:100F2800972F22082402031C9A2F9B2FA22F2208F6
:100F3800A4022308031CA503A502291401300310E9
:100F4800A30CA20CFF3E031DA32F0130A702031D13
:100F5800AE2FAF2F8A2F28080319B32FB42FB92F1C
:100F6800A909AA09A90A0319AA0A2A08A30029088B
:100F7800A2000800FF1BC82F83137F1883170008DF
:100F8800840A0319FF0A080007308A000408840A43
:100F980082070034013400340A34003464340034E5
:100FA800E834033410342734533431343A34203499
:100FB8002034533432343A342034203453343334E4
:100FC8003A34003425346434563420340034303410
:100FD800003431340034323400343334003434349F
:100FE800003435340034363400343734003438347F
:060FF8000034393400341E
:101A740064008001840A04060319003404063B2D23
:101A840000300A128A155E250A128A1501300A12DC
:101A94008A155E250A128A150800F40083120313BE
:101AA40007167408880087160D30F300F30B582DC1
:101AB4008312031387120800F5008312031307121D
:101AC4007508880087160730F4007D30F300F30BA7
:101AD400692DF40B692D8312031387120800F70094
:101AE4007703031D762D772D802D76080F398038E6
:101AF4000A128A155E250A128A158E2D023077067F
:101B0400031D852D862D8E2D76080F39C0380A12B7
:101B14008A155E250A128A150800831203139F187A
:101B2400942D952DAD2D1F0CF300730C0F39003A35
:101B3400031D9D2D9E2DA32D1F08C33904389F001E
:101B4400A52DC3309F051030F300F30BA72D000023
:101B5400831203139F14080083120313A400A0012B
:101B6400A1017308F500F6017508A2007608A30028
:101B7400241CBD2DBE2DC42D2208A0070318A10AC4
:101B84002308A10701300310A20DA30DFF3E031D7E
:101B9400C52D0310A40C2408031DD12DD22DBA2D5C
:101BA4002108F4002008F3000800831203131F1413
:101BB400C3309F05831603139F131F129F128312B2
:101BC40003139F10F22D3F309F05022E1F083F394B
:101BD40040389F00022E1F083F3980389F00022E94
:101BE4007408003A0319F72D022E7308013A0319F9
:101BF400E52D053A0319E82D0C3A0319ED2D022EB3
:101C04000800831203130C1F082E092E1C2E1F0C10
:101C1400F000700C0F39003A031D112E122E172EEE
:101C24001E08F0007008DB001B2E1E08F000700870
:101C3400DA000C138C1E1F2E202E342E2B301A0685
:101C4400031D252E262E2B2E0130F0007008D907F7
:101C5400332E2D301A06031D302E312E332E013033
:101C6400D9028C1272088A00710E8300FE0E7E0E59
:101C7400090083120313230824040319422E432E5C
:101C8400722EA801A80A512E01300310A30DA40D31
:101C9400FF3E031D472E0130A7002708A807A41FF5
:101CA400542E552E462E24082602031D5B2E23088F
:101CB4002502031C5E2E5F2E652E2308A502240830
:101CC400031CA603A60201300310A40CA30CFF3EC0
:101CD400031D662E0130A802031D712E722E552E8F
:101CE4002608A4002508A3000800831203139817EC
:101CF4008316031318121813831203131813942E44
:101D040019308316031399001815831603178711C6
:101D1400A12E0C3083160313990018118316031790
:101D24008711A12E2108003A0319992EA12E20080B
:101D3400043A0319822E0C3A03198B2EA12E831216
:101D4400031322032304031DA82EA92EAD2E8316EC
:101D540003139816B02E83160313981283120313D9
:101D640024032504031DB72EB82EBA2E1816BB2E35
:101D74001812080083120313A301A401E52E2308FB
:101D84007507A1007608A0000318A00AA31FCB2E94
:101D9400A003831203132008A2002208FF002108D5
:101DA40084000A128A11BE270A128A150A128A1599
:101DB4004F250A128A15013083120313A30703184F
:101DC400A40A0030A40723087507A1007608A00020
:101DD4000318A00AA31FEF2EA003831203132008E5
:101DE400A2002208FF00210884000A128A11BE27DB
:101DF4000A128A15003A031D002F012FC12E080074
:101E040083120313A101A2017308740403190B2F95
:101E14000C2F432FA001A00A1A2F01300310F30D39
:101E2400F40DFF3E031D102F0130F7007708A007C3
:101E3400F41F1D2F1E2F0F2F01300310A10DA20D13
:101E4400FF3E031D1F2F74087602031D2B2F7308FA
:101E54007502031C2E2F2F2F362F7308F5027408DA
:101E6400031CF603F602211401300310F40CF30CE6
:101E7400FF3E031D372F0130A002031D422F432FC5
:101E84001E2F2208F4002108F30008008312031314
:101E9400A101F61F4E2F4F2F562FF509F609F50A0B
:101EA4000319F60AA101A10AF41F592F5A2F5F2F13
:101EB400F309F409F30A0319F40A730874040319FF
:101EC400642F652F942FA001A00A732F01300310F3
:101ED400F30DF40DFF3E031D692F0130F700770861
:101EE400A007F41F762F772F682F74087602031D3E
:101EF4007D2F73087502031C802F812F872F730891
:101F0400F5027408031CF603F60201300310F40C06
:101F1400F30CFF3E031D882F0130A002031D932FF5
:101F2400942F772F21080319982F992F9E2FF509A5
:101F3400F609F50A0319F60A7608F4007508F300A1
:101F440008008312031388011A30F700F830F600F2
:101F5400F60BAA2FF70BAA2F000030300A128A15AD
:101F64005E250A128A150730F7007D30F600F60B5D
:101F7400B92FF70BB92F30300A128A155E250A12D1
:101F84008A150F30F7004730F600F60BC72FF70B12
:101F9400C72FCC2F30300A128A155E250A128A15F3
:101FA40038300A128A155E250A128A1510300A1270
:101FB4008A155E250A128A1501300A128A155E25D1
:101FC4000A128A1506300A128A155E250A128A1523
:101FD40010300A128A155E250A128A150C300A126C
:101FE4008A155E250A128A158230F700DD30F60064
:0C1FF400F60BFA2FF70BFA2FFF2F080056
:04400E00C430FF3F7C
:00000001FF
