:020000040000FA
:060000000A128A110C280F
:10000800FE00030EF1000A08F2000A128A15632D99
:100018000A128A110F28F801F901FA0183134F30E7
:1000280084006F300A128A1536240A128A11A03009
:100038008400BE300A128A1536240A128A118301F6
:100048000A128A11882B831203132D088039B200F3
:100058003208B7002D08B2003207B3003308BD00DC
:10006800AC1F3728382839283D143D0803193D2886
:100078003E284D283D0A031D422843284B280030BE
:10008800AD000030AC000030AB000030AA00AC1767
:1000980055280030AD000030AC000030AB00003017
:1000A800AA0031088039B2003208B7063108B20018
:1000B8003207B3003308BC00B01F632864286528E2
:1000C8003C143C08031969286A2879283C0A031D4E
:1000D8006E286F2877280030B1000030B00000305B
:1000E800AF000030AE00B01781280030B1000030FA
:1000F800B0000030AF000030AE003C08031985287E
:1001080086288B283D08031D8A288B2894280030D0
:10011800AD000030AC000030AB000030AA00872BE7
:100128002A08B2003208F30030080A128A15D224CD
:100138000A128A11740883120313C3007308C200D9
:100148004208B200B301B401B5013508BB00340858
:10015800BA003308B9003208B8004308B200B30146
:10016800B401B5013508C1003408C0003308BF0028
:100178003208BE002B08B2003208F3002F080A121A
:100188008A15D2240A128A11740883120313C30031
:100198007308C2004208B200B301B401B5013208C5
:1001A800B807330803110318013E0319DC28B907FF
:1001B800340803110318013E0319E328BA07350868
:1001C80003110318013E0319EA28BB074308B200CC
:1001D800B301B401B5013208BE073308031103188F
:1001E800013E0319F828BF07340803110318013E1C
:1001F8000319FF28C007350803110318013E031926
:100208000629C1072C08B2003208F3002E080A128A
:100218008A15D2240A128A11740883120313C300A0
:100228007308C2004208B200B301B401B501320834
:10023800B807330803110318013E03192429B90725
:10024800340803110318013E03192B29BA0735088E
:1002580003110318013E03193229BB074308B200F2
:10026800B301B401B5013208BE07330803110318FE
:10027800013E03194029BF07340803110318013E42
:1002880003194729C007350803110318013E03194C
:100298004E29C1070830B2000310B80DB90DBA0DC8
:1002A800BB0DB20B50292B08B2003208F3002E0800
:1002B8000A128A15D2240A128A11740883120313A7
:1002C800C3007308C2004208B2004308B300B40177
:1002D800B5013208B807330803110318013E0319A2
:1002E8007629B907340803110318013E03197D293B
:1002F800BA07350803110318013E03198429BB07FF
:100308002A08B2003208F3002F080A128A15D224EC
:100318000A128A11740883120313C3007308C200F7
:100328004208B2004308B300B401B5013208B80767
:10033800330803110318013E0319A329B907340828
:1003480003110318013E0319AA29BA073508031136
:100358000318013E0319B129BB070830B200031086
:10036800B80DB90DBA0DBB0DB20BB3292A08B200EE
:100378003208F3002E080A128A15D2240A128A11AA
:10038800740883120313C3007308C2004208B20042
:100398004308B300B401B5013208B80733080311A4
:1003A8000318013E0319D929B907340803110318A2
:1003B800013E0319E029BA07350803110318013E65
:1003C8000319E729BB072B08B2003208F3003008ED
:1003D8000A128A15D2240A128A1174088312031386
:1003E800C3007308C2004208B2004308B300B40156
:1003F800B5013208BE07330803110318013E03197B
:10040800062ABF07340803110318013E03190D2AF1
:10041800C007350803110318013E0319142AC10740
:100428002C08B2003208F3002F080A128A15D224C9
:100438000A128A11740883120313C3007308C200D6
:100448004208B2004308B300B401B5013208BE0740
:10045800330803110318013E0319332ABF07340870
:1004680003110318013E03193A2AC007350803117E
:100478000318013E0319412AC1072C08B2003208AB
:10048800F30030080A128A15D2240A128A11740855
:1004980083120313C3007308C2004208B200430862
:1004A800B300B401B50108300310B20DB30DB40D9B
:1004B800B50DFF3E031D582A3208BE073308031145
:1004C8000318013E0319692ABF07340803110318EA
:1004D800013E0319702AC007350803110318013EAD
:1004E8000319772AC1073808B2003908B3003A0857
:1004F800B4003B08B50018300310B50CB40CB30CAD
:10050800B20CFF3E031D802A3208BE0733080311D0
:100518000318013E0319912ABF0734080311031871
:10052800013E0319982AC007350803110318013E34
:1005380003199F2AC1070830B2000310B80DB90D7E
:10054800BA0DBB0DB20BA12A3D083C07B200B3019E
:10055800B30D3208823EC20033080318013EFF3E45
:10056800C300D32A0130B2000310BE0DBF0DC00D69
:10057800C10DB20BB82ABB1FC22AC32AC42A3E1413
:100588000130B2000310B80DB90DBA0DBB0DB20B96
:10059800C62AFF30C2070318C30AFF30C307C01FAB
:1005A800D62AD72AB62ABC01BB1FDB2ADC2AF82A9E
:1005B800FF303805B200FF303905B300FF303A0587
:1005C800B4007F303B05B5003508340433043204E9
:1005D8000319EF2AF02AF32ABC01BC0AF82A3E1CA8
:1005E800F62AF72AF82AF02A3C080319FC2AFD2AD9
:1005F8002E2B0130BE07003003180130BF07003032
:1006080003180130C007003003180130C107411C2E
:100618000E2B0F2B2E2B3E08B2003F08B3004008CC
:10062800B4004108B5000130B600350DB50CB40C66
:10063800B30CB20CB60B192B3508C1003408C00036
:100648003308BF003208BE000130C2070318C30ACE
:100658000030C3074308803AFF0080307F02031D43
:10066800372BFF304202031C3A2B3B2B462B7F30A3
:1006780083120313C1008030C0000030BF00003077
:10068800BE007B2B831203134308803AFF0080309F
:100698007F02031D512B013042020318542B552BA6
:1006A800612B003083120313C1000030C0000030FA
:1006B800BF000030BE00B7017B2B83120313420832
:1006C800B2003208BD00FF30BE05FF30BF057F30E5
:1006D800C0050030C1053D1C722B732B742BC0174D
:1006E8003D08B2000310320CB3003308C1003708CC
:1006F800B2003208C1044108AD004008AC003F0810
:10070800AB003E08AA0008000330831603178800D0
:100718008901033083160313850086018030870022
:1007280088010F088F3960388F008F110F1404303B
:10073800F3000030F4000A128A15FB240A128A1109
:10074800043083120313A0000030A1000130A2007E
:100758000030A3000130A4000030A5000A128A1559
:10076800A6250A128A110B17831603130C178C1669
:10077800831203139F140A128A15D2260A128A11A9
:10078800831203138C128B170A128A153E240A123D
:100798008A11F601F60A01300A128A156D240A1226
:1007A8008A112B30F5008030F6000A128A15EB25E5
:1007B8000A128A110B30F3008030F4000A128A15ED
:1007C800AA240A128A110A128A158B240A128A117B
:1007D80083120313580886005A0883160313BE00B1
:1007E800BF01C001C1014108F6004008F5003F08FB
:1007F800F4003E08F30001300A128A1156260A1244
:100808008A11760883120313B1007508B0007408C2
:10081800AF007308AE003C30AD00A030AC00A5308E
:10082800AB002730AA000A128A1127200A128A115F
:10083800831203132D08C7002C08C6002B08C50017
:100848002A08C4000A128A1112270A128A1183126E
:1008580003134508D4004408D3005908831603132A
:10086800BE00BF01C001C1014108F6004008F50003
:100878003F08F4003E08F30001300A128A11562698
:100888000A128A11760883120313B1007508B000A2
:100898007408AF007308AE003C30AD00A030AC0067
:1008A800A530AB002730AA000A128A1127200A12A5
:1008B8008A11831203132D08C7002C08C6002B08C1
:1008C800C5002A08C4000A128A1112270A128A11BE
:1008D800831203134508D2004408D10058080A12AD
:1008E8008A152F270A128A114A3083160313BE006D
:1008F8003E0883120313A9005408AB005308AA004A
:1009080065300A128A116C250A128A115030831632
:100918000313BE003E0883120313A9005208AB005C
:100928005108AA005B300A128A116C250A128A1132
:10093800563083160313BE003E0883120313A90022
:10094800570883160313BF00C0013F08831203131F
:10095800AA0083160313400883120313AB00B430B4
:100968000A128A116C250A128A1158308316031349
:10097800BE003E0883120313A9005608831603130A
:10098800BF00C0013F0883120313AA008316031394
:10099800400883120313AB00AA300A128A116C258F
:1009A8000A128A11583083160313BE003E088312B8
:1009B8000313A900550883160313BF00C0013F089D
:1009C80083120313AA008316031340088312031328
:1009D800AB00A0300A128A116C250A128A11F6019E
:1009E800F60A02300A128A156D240A128A11653035
:1009F800F5000030F6000A128A15EB250A128A1152
:100A08005B30F5000030F6000A128A15EB250A1251
:100A18008A11B430F5000030F6000A128A15EB2569
:100A28000A128A11AA30F5000030F6000A128A1557
:100A3800EB250A128A11A030F5000030F6000A12E0
:100A48008A15EB250A128A11831203134F035004E7
:100A5800031D2F2D302DE72BCF01D0015B30F30084
:100A68008030F4000A128A15AA240A128A11423028
:100A7800F3008030F4000A128A15AA240A128A1197
:100A88006530F3000030F4000A128A15AA240A120D
:100A98008A113930F3008030F4000A128A15AA242A
:100AA8000A128A115B30F3000030F4000A128A152A
:100AB800AA240A128A115B30F3008030F4000A126B
:100AC8008A15AA240A128A11E72B0A128A110C28FD
:100AD80083120313B4002A30AC002C08AF003F2E59
:100AE800253035060319792D7A2D862D3508AC0069
:100AF800340884002C08831380000130AC002C08D3
:100B0800B4073F2EB0010130A907FF302907840040
:100B18000A128A1198270A128A11B500AC00AD0191
:100B28002D08003A0319992D3F2E2C08003A031975
:100B3800512E643A0319A42D0D3A0319A42D3F2E02
:100B48002F08840083130008B200840A0008B30049
:100B58000230AC002C08AF07B31FB32DB42DBD2D48
:100B68000330AC002C08B004B209B309B20A031967
:100B7800B30AB501B50A3508AC002C07013E84005C
:100B88000A128A1198270A128A11AD000A128A11CC
:100B980098270A128A11AE002E083302031DD62D9B
:100BA8002D0832020318D92DDA2DDB2DE52D013061
:100BB800AC002C08B50705303506031DE42DE52DDE
:100BC800BF2D300803390319EA2DEB2DF62D2D30F2
:100BD800AC00340884002C08831380000130AC007A
:100BE8002C08B4073508AC002C08B100362E0A30A2
:100BF800A3000030A4003108AC002C07013E84009B
:100C08000A128A1198270A128A11F3000A128A1105
:100C180098270A128A11F4003308F6003208F50002
:100C28000A128A1531260A128A11740883120313CC
:100C3800A6007308A5000A128A1527250A128A1128
:100C4800831203132308303EAD002D08B500350884
:100C5800AC00340884002C08831380000130AC00F9
:100C68002C08B407FF30AC002C08B107310A031D6B
:100C78003E2E3F2EFB2D0130A907FF3029078400A7
:100C88000A128A1198270A128A11AC002C08B5009A
:100C98003508031D502E512E742D340884008313FB
:100CA8008001080083120313A400240803195D2E91
:100CB8005E2E722EF61F612E622E722E7309A6000A
:100CC8007409A7007509A8007609A900A60A0319DE
:100CD800A70A0319A80A0319A90A7A2E7608A900EF
:100CE8007508A8007408A7007308A600760875049C
:100CF80074047304031D812E822E8B2E0030F6009F
:100D08000030F5000030F4000030F300112F963069
:100D1800A0002008A5009D2E0130A0002008A507EE
:100D280001300310A90CA80CA70CA60CFF3E031D4C
:100D3800952EFE302905031DA22EA32E902EBF2E20
:100D48000130A0002008A5070130A60700300318CD
:100D58000130A707003003180130A8070030031836
:100D68000130A90701300310A90CA80CA70CA60C88
:100D7800FF3E031DB72EFF302905031DC42EC52EC7
:100D8800A42ED12E0130A5020130A0000310A60D1B
:100D9800A70DA80DA90DA00BCA2EA81BD42ED52EC1
:100DA800DB2E023025020318DA2EDB2EC62E25187C
:100DB800DE2EDF2EE72EFF30A605FF30A7057F3099
:100DC800A805FF30A9050310A50C2508A000A1015E
:100DD800A201A30118300310A00DA10DA20DA30DAF
:100DE800FF3E031DEF2E2008A6042108A7042208B1
:100DF800A8042308A90424080319032F042F092F82
:100E0800F61F072F082F092FA9172908F600280809
:100E1800F5002708F4002608F300080003108312E1
:100E28000313460D470DC8004808CE004E08031DA1
:100E38001E2F1F2F282F0030C7000030C60000309B
:100E4800C5000030C4008D2F4408C8004508C900FB
:100E58004608CA004708CB001F300310CB0CCA0C49
:100E6800C90CC80CFF3E031D312F4808CC004C08A4
:100E7800CD00C617FF30C405FF30C505FF30C605D5
:100E88000030C7059630CE02CE1F4B2F4C2F662F51
:100E98004E08803A973E0318522F532F542F1F2F76
:100EA80001300310C70CC60CC50CC40CFF3E031D53
:100EB800552F0130C8004808CE07031D642F652F41
:100EC800542F7D2F20304E02031C6B2F6C2F782F50
:100ED8001F2F0130C8000310C40DC50DC60DC70D66
:100EE800C80B6F2F0130CE024E08031D7C2F7D2FBB
:100EF8006D2F4D080319812F822F8D2FC409C50925
:100F0800C609C709C40A0319C50A0319C60A031979
:100F1800C70A0800FF1B982F83137F188317000840
:100F2800840A0319FF0A080007308A000408840AA3
:100F380082070034013400340A3400346434003445
:100F4800E83403341034273450347234653473343D
:100F580069346F346E34653420342A342034703464
:100F680061347234613420346D346F3473347434C2
:100F780072346134723420346C346F3473342034F6
:100F880070346F3474340034533431343A34203488
:100F98002034533432343A34203420345334333404
:100FA8003A340034203450346F34743420343234BA
:100FB8003A342034003450346F34743420343134AB
:100FC8003A34203400342534643456342034203400
:100FD800003420342534643456342034003420342A
:100FE80020342534643400340D3420340034003483
:10186C0064008001840A0406031900340406372C32
:10187C0000300A128A155A240A128A1501300A12EB
:10188C008A155A240A128A150800F40083120313CD
:10189C0007167408880087160D30F300F30B542CD0
:1018AC008312031387120800F50083120313071227
:1018BC007508880087160730F4007D30F300F30BB1
:1018CC00652CF40B652C8312031387120800F700A8
:1018DC007703031D722C732C7C2C76080F398038FF
:1018EC000A128A155A240A128A158A2C0230770693
:1018FC00031D812C822C8A2C76080F39C0380A12D1
:10190C008A155A240A128A150800831203139F1889
:10191C00902C912CA92C1F0CF300730C0F39003A4E
:10192C00031D992C9A2C9F2C1F08C33904389F0037
:10193C00A12CC3309F051030F300F30BA32C000037
:10194C00831203139F140800C12C7408FF00730842
:10195C0084000A128A118E270A128A15990083169E
:10196C000313981CBA2CBB2CB52C0130F3070318AD
:10197C00F40A0030F407740883120313FF00730891
:10198C0084000A128A118E270A128A15003A031D46
:10199C00D02CD12CAB2C080083120313A400A00173
:1019AC00A1017308F500F6017508A2007608A300E2
:1019BC00241CE12CE22CE82C2208A0070318A10A15
:1019CC002308A10701300310A20DA30DFF3E031D38
:1019DC00E92C0310A40C2408031DF52CF62CDE2C8A
:1019EC002108F4002008F3000800831203131F14CD
:1019FC00C3309F05831603139F131F129F1283126C
:101A0C0003139F10162D3F309F05262D1F083F39BD
:101A1C0040389F00262D1F083F3980389F00262D07
:101A2C007408003A03191B2D262D7308013A03196B
:101A3C00092D053A03190C2D0C3A0319112D262DDD
:101A4C000800831203132308240403192E2D2F2DB1
:101A5C005E2DA801A80A3D2D01300310A30DA40D85
:101A6C00FF3E031D332D0130A7002708A807A41F34
:101A7C00402D412D322D24082602031D472D23080D
:101A8C002502031C4A2D4B2D512D2308A502240899
:101A9C00031CA603A60201300310A40CA30CFF3EEA
:101AAC00031D522D0130A802031D5D2D5E2D412D0D
:101ABC002608A4002508A3000800831203130C1F9A
:101ACC00682D692D7C2D1F0CF000700C0F39003A1D
:101ADC00031D712D722D772D1E08F0007008DA0091
:101AEC007B2D1E08F0007008D9000C138C1E7F2D66
:101AFC00802D9F2D2B301A06031D852D862D8B2DA9
:101B0C000130F0007008D8079E2D2D301A06031DE9
:101B1C00902D912D942D0130D8029E2D2A301A062D
:101B2C00031D992D9A2D9E2D0130CF000030D00031
:101B3C008C1272088A00710E8300FE0E7E0E090054
:101B4C008312031398178316031318121813831296
:101B5C0003131813C32D193083160313990018158A
:101B6C00831603178711D02D0C308316031399009D
:101B7C001811831603178711D02D2108003A031969
:101B8C00C82DD02D2008043A0319B12D0C3A031995
:101B9C00BA2DD02D8312031322032304031DD72D3A
:101BAC00D82DDC2D831603139816DF2D8316031303
:101BBC0098128312031324032504031DE62DE72D2D
:101BCC00E92D1816EA2D1812080083120313A3012D
:101BDC00A401142E23087507A1007608A000031891
:101BEC00A00AA31FFA2DA003831203132008A2003E
:101BFC002208FF00210884000A128A118E270A127B
:101C0C008A150A128A154B240A128A15013083127E
:101C1C000313A3070318A40A0030A40723087507AD
:101C2C00A1007608A0000318A00AA31F1E2EA00373
:101C3C00831203132008A2002208FF00210884004D
:101C4C000A128A118E270A128A15003A031D2F2EAA
:101C5C00302EF02D080083120313A101A20173088A
:101C6C00740403193A2E3B2E722EA001A00A492EA1
:101C7C0001300310F30DF40DFF3E031D3F2E013018
:101C8C00F7007708A007F41F4C2E4D2E3E2E013086
:101C9C000310A10DA20DFF3E031D4E2E74087602FB
:101CAC00031D5A2E73087502031C5D2E5E2E652EC5
:101CBC007308F5027408031CF603F60221140130B4
:101CCC000310F40CF30CFF3E031D662E0130A00232
:101CDC00031D712E722E4D2E2208F4002108F300E4
:101CEC00080083120313A101F61F7D2E7E2E852E74
:101CFC00F509F609F50A0319F60AA101A10AF41F60
:101D0C00882E892E8E2EF309F409F30A0319F40A8E
:101D1C00730874040319932E942EC32EA001A00AE9
:101D2C00A22E01300310F30DF40DFF3E031D982E6F
:101D3C000130F7007708A007F41FA52EA62E972ECA
:101D4C0074087602031DAC2E73087502031CAF2EAB
:101D5C00B02EB62E7308F5027408031CF603F602B7
:101D6C0001300310F40CF30CFF3E031DB72E0130B1
:101D7C00A002031DC22EC32EA62E21080319C72EA6
:101D8C00C82ECD2EF509F609F50A0319F60A7608C0
:101D9C00F4007508F30008008312031388011A304D
:101DAC00F700F830F600F60BD92EF70BD92E000001
:101DBC0030300A128A155A240A128A150730F70095
:101DCC007D30F600F60BE82EF70BE82E30300A12B9
:101DDC008A155A240A128A150F30F7004730F6007C
:101DEC00F60BF62EF70BF62EFB2E30300A128A1558
:101DFC005A240A128A1538300A128A155A240A12E1
:101E0C008A1510300A128A155A240A128A150130C2
:101E1C000A128A155A240A128A1506300A128A15D1
:101E2C005A240A128A1510300A128A155A240A12D8
:101E3C008A150C300A128A155A240A128A15823015
:101E4C00F700DD30F600F60B292FF70B292F2E2F7C
:101E5C00080083120313B0006430A2000030A3000A
:101E6C003008AB00AC012B08A4002C08A5000A120A
:101E7C008A1597270A128A15831203132208AD00BC
:101E8C002D08D7000A30A2000030A3003008AB00A8
:101E9C00AC012B08F5002C08F6006430F300003080
:101EAC00F4000A128A1577260A128A15740883120E
:101EBC000313A5007308A4000A128A1597270A12A7
:101ECC008A15831203132208AD002D08D6003008A2
:101EDC00AB00AC012B08F5002C08F6006430F300C5
:101EEC000030F4000A128A1577260A128A15740833
:101EFC0083120313AF007308AE000A30F3000030F6
:101F0C00F4002F08F6002E08F5000A128A15772621
:101F1C000A128A15730883120313AB002B08D50021
:101F2C00080083120313A801A31F9D2F9E2FA52F1A
:101F3C00A209A309A20A0319A30AA801A80AA51FAA
:101F4C00A82FA92FB22FA409A509A40A0319A50A21
:101F5C000130A6002608A806A901AA01220823041C
:101F6C000319B92FBA2FF12FA701A70AC82F0130D7
:101F7C000310A20DA30DFF3E031DBE2F0130A600C2
:101F8C002608A707A31FCB2FCC2FBD2F0130031082
:101F9C00A90DAA0DFF3E031DCD2F23082502031DFD
:101FAC00D92F22082402031CDC2FDD2FE42F22085A
:101FBC00A4022308031CA503A50229140130031055
:101FCC00A30CA20CFF3E031DE52F0130A702031D3D
:101FDC00F02FF12FCC2F28080319F52FF62FFB2FFC
:101FEC00A909AA09A90A0319AA0A2A08A3002908F7
:041FFC00A200080037
:04400E00C430FF3F7C
:00000001FF
