:020000040000FA
:060000000A128A110E280D
:10000800FE00030E83120313A4000A08A5000A12B7
:100018008A1113290A128A11112883135A30FD00F4
:100028000430FE009E30FF00503084000A128A110E
:1000380070240A128A113B30840050300A128A1147
:10004800A8240A128A11FD0183010A128A112C2898
:1000580003308316031788008901033083160313BE
:10006800850086018030870088010F088F39603845
:100078008F008F110F14043083120313A600003071
:10008800A7000A128A11A2230A128A1104308312C5
:100098000313A6000030A7000130A8000030A90013
:1000A8000130AA000030AB000A128A112B230A1271
:1000B8008A110B17831603130C178C16831203135C
:1000C8009F140A128A116C220A128A1183120313CE
:1000D8008C120C138B170A128A1191240A128A1196
:1000E800643083120313AD000030AE003E08B00048
:1000F8003D08AF000A128A119C210A128A11831244
:1001080003132D08B6003608CF000A30AD000030C2
:10011800AE003E08A9003D08A8006430A6000030E3
:10012800A7000A128A11D0220A128A118312031315
:100138002708B0002608AF000A128A119C210A126B
:100148008A11831203132D08B6003608CE003E0824
:10015800A9003D08A8006430A6000030A7000A12D4
:100168008A11D0220A128A11831203132708BA00AF
:100178002608B9000A30A6000030A7003A08A900EE
:100188003908A8000A128A11D0220A128A11831289
:1001980003132608B6003608CD00A901A90A0130C4
:1001A8000A128A11F9230A128A11013083120313E1
:1001B800A8008030A9000A128A1170230A128A1135
:1001C80083120313A901A90A02300A128A11F9231A
:1001D8000A128A11831203134F08503E84008313B6
:1001E8000008B600B7013608A8003708A9000A12A7
:1001F8008A1170230A128A111A3083120313B80065
:100208005E30B7006D30B600B60B0829B70B082969
:10021800B80B08290F2974280A128A110E280C1FF6
:100228001629172977291F0CA200220C0F39003A2A
:10023800031D1F29202948291E08A200A3012208FE
:10024800C9002308CA000030F0000130F1004A0854
:10025800F3004908F2000A128A1105220A128A11CB
:100268007108FA007008F9000530FB000030FC0046
:100278000A128A11CE230A128A117A0883120313EA
:10028800BE007908BD006F291E08A200A30122083C
:10029800C7002308C8000030F0000130F10048080A
:1002A800F3004708F2000A128A1105220A128A117D
:1002B8007108FA007008F900F430FB000130FC0006
:1002C8000A128A11CE230A128A117A08831203139A
:1002D800BC007908BB000A128A1119240A128A1173
:1002E800831203130C138C1E7A297B2995292B3032
:1002F8001A06031D8029812988290130BF070318A0
:10030800C00A0030C00794292D301A06031D8D2914
:100318008E299429FF30BF070318C00AFF30C00791
:100328008C1225088A00240E8300FE0E7E0E09001A
:1003380083120313B301AE1FA229A329AA29AD0969
:10034800AE09AD0A0319AE0AB301B30AB01FAD294D
:10035800AE29B729AF09B009AF0A0319B00A0130AD
:10036800B1003108B306B401B5012D082E040319F4
:10037800BE29BF29F629B201B20ACD2901300310DE
:10038800AD0DAE0DFF3E031DC3290130B10031088C
:10039800B207AE1FD029D129C22901300310B40DEC
:1003A800B50DFF3E031DD2292E083002031DDE299C
:1003B8002D082F02031CE129E229E9292D08AF02A3
:1003C8002E08031CB003B002341401300310AE0C25
:1003D800AD0CFF3E031DEA290130B202031DF529C9
:1003E800F629D12933080319FA29FB29002AB40967
:1003F800B509B40A0319B50A3508AE003408AD00CA
:100408000800F601F11F092A0A2A112AF009F10940
:10041800F00A0319F10AF601F60AF31F142A152A3D
:100428001E2AF209F309F20A0319F30A0130F4004B
:100438007408F606F701F801700871040319252AF3
:10044800262A5D2AF501F50A342A01300310F00D39
:10045800F10DFF3E031D2A2A0130F4007408F50748
:10046800F11F372A382A292A01300310F70DF80D11
:10047800FF3E031D392A71087302031D452A7008BF
:100488007202031C482A492A502A7008F20271088D
:10049800031CF303F302771401300310F10CF00C82
:1004A800FF3E031D512A0130F502031D5C2A5D2A17
:1004B800382A76080319612A622A672AF709F8098F
:1004C800F70A0319F80A7808F1007708F00008001D
:1004D8008312031388011A3083120313AA00F7301A
:1004E800A900A90B752AAA0B752A7A2A30300A1294
:1004F8008A1156240A128A11073083120313AA009C
:100508007C30A900A90B862AAA0B862A0000303065
:100518000A128A1156240A128A110F308312031301
:10052800AA004730A900A90B972AAA0B972A3030AE
:100538000A128A1156240A128A1138300A128A11AC
:1005480056240A128A1110300A128A1156240A12E5
:100558008A1101300A128A1156240A128A110630A9
:100568000A128A1156240A128A1110300A128A11A4
:1005780056240A128A110C300A128A1156240A12B9
:100588008A11823083120313AA00DD30A900A90B57
:10059800CB2AAA0BCB2A080083120313AC01A91F8C
:1005A800D62AD72ADE2AA809A909A80A0319A90A56
:1005B800AC01AC0AA71FE12AE22AE72AA609A70983
:1005C800A60A0319A70A260827040319EC2AED2A04
:1005D8001C2BAB01AB0AFB2A01300310A60DA70D9B
:1005E800FF3E031DF12A0130AA002A08AB07A71F06
:1005F800FE2AFF2AF02A27082902031D052B2608B0
:100608002802031C082B092B0F2B2608A8022708F1
:10061800031CA903A90201300310A70CA60CFF3E76
:10062800031D102B0130AB02031D1B2B1C2BFF2AB3
:100638002C080319202B212B262BA809A909A80A65
:100648000319A90A2908A7002808A6000800831288
:10065800031398178316031318121813831203131E
:100668001813482B1930831603139900181583168D
:1006780003178711552B0C30831603139900181193
:10068800831603178711552B2708003A03194D2B9A
:10069800552B2608043A0319362B0C3A03193F2B1D
:1006A800552B8312031328032904031D5C2B5D2B90
:1006B800612B831603139816642B83160313981261
:1006C800831203132A032B04031D6B2B6C2B6E2B35
:1006D80018166F2B1812080083120313AA01AB0116
:1006E8008F2B2A08280784002B0803182B0A2907B0
:1006F800FF000A128A1138240A128A110A128A1172
:100708007F240A128A11013083120313AA070318DF
:10071800AB0A0030AB072A08280784002B08031807
:100728002B0A2907FF000A128A1138240A128A1193
:10073800003A031DA02BA12B752B0800831203136D
:100748001F14C3309F05831603139F131F129F1294
:10075800831203139F10BD2B3F309F05CD2B1F081D
:100768003F3940389F00CD2B1F083F3980389F0004
:10077800CD2B2708003A0319C22BCD2B2608013AA6
:100788000319B02B053A0319B32B0C3A0319B82BEC
:10079800CD2B080083120313A001A101791CD52BCE
:1007A800D62BDE2B7B0883120313A0070318A10A9C
:1007B8007C08A10701300310FB0DFC0DFF3E031D53
:1007C800DF2B01300310FA0CF90CFF3E031DE62B5A
:1007D80079087A04031DF12BF22BD22B8312031311
:1007E8002108FA002008F900080083120313AA0060
:1007F8002A03031D002C012C0A2C29080F398038E4
:100808000A128A1156240A128A11182C02302A0652
:10081800031D0F2C102C182C29080F39C0380A1268
:100828008A1156240A128A110800831203139F188A
:100838001E2C1F2C372C1F0CF000700C0F39003A9F
:10084800031D272C282C2D2C1F08C33904389F0082
:100858002F2CC3309F051030F000F00B312C000016
:10086800831203139F140800FF1B422C83137F1865
:1008780083170008840A0319FF0A080004308A0055
:100888000408840A82070034533431343A3420345B
:100898002034533432343A3420342034533433340B
:1008A8003A34003483120313A8000712280888007A
:1008B8008716073083120313A7007C30A600A60B07
:1008C800632CA70B632C0000831203138712080004
:1008D8007E088A007F0882000A128A116C240A1294
:1008E8008A118000840A04087D0603190034FF0A6F
:1008F8000319FE0A702C83120313A7000716270892
:10090800880087160C3083120313A600A60B8A2CC6
:100918000000831203138712080000300A128A119C
:1009280056240A128A1101300A128A1156240A1210
:100938008A110800303400340034003400340034A4
:10094800003400340034003464008001840A040652
:08095800031900340406A92C68
:04400E00C430FF3F7C
:00000001FF
