:020000040000FA
:060000000A128A11F32F21
:10000A000A128A1593250A128A1183160313911567
:10001A000A128A1593250A128A11831203131308E6
:10002A00F200F3017208F4007308F5000A128A1547
:10003A0093250A128A1170037104031D25282628A4
:10004A002A288316031391122D2883160313911657
:10005A0011167508F1007408F000080083120313E2
:10006A00A9006430F7000030F8002908A400A501AF
:10007A002408F9002508FA000A128A11FF200A1238
:10008A008A11770883120313A6002608CD000A30C6
:10009A00F7000030F8002908A400A5012408F2009E
:1000AA002508F3006430F0000030F1000A128A15C6
:1000BA004A270A128A117108FA007008F9000A120E
:1000CA008A11FF200A128A11770883120313A600E5
:1000DA002608CC002908A400A5012408F200250856
:1000EA00F3006430F0000030F1000A128A154A2742
:1000FA000A128A11710883120313A8007008A70054
:10010A000A30F0000030F1002808F3002708F20056
:10011A000A128A154A270A128A11700883120313CF
:10012A00A4002408CB0008000030FC000030FB00CB
:10013A000030FA000030F900730872047104700488
:10014A000319A828A928F628FD01FD0AB9280130B3
:10015A00F8000310F00DF10DF20DF30DF80BAE28B7
:10016A000130F8007808FD07F31FBC28BD28AC2829
:10017A000130F8000310F90DFA0DFB0DFC0DF80B18
:10018A00BF2873087702031DD42872087602031D5C
:10019A00D42871087502031DD42870087402031C40
:1001AA00D728D828E7287008F4027108031C710FB1
:1001BA00F5027208031C720FF6027308031C730F10
:1001CA00F702791401300310F30CF20CF10CF00C65
:1001DA00FF3E031DE8280130FD02031DF528F6281D
:1001EA00BD287C08F3007B08F2007A08F100790840
:1001FA00F000080083120313A101F81F052906293C
:10020A000D29F709F809F70A0319F80AA101A10A41
:10021A00FA1F102911291A29F909FA09F90A0319E1
:10022A00FA0A0130FB007B08A106A201A3017708A4
:10023A0078040319212922295929A001A00A302961
:10024A0001300310F70DF80DFF3E031D262901307A
:10025A00FB007B08A007F81F332934292529013020
:10026A000310A20DA30DFF3E031D352978087A025B
:10027A00031D412977087902031C442945294C2981
:10028A007708F9027808031CFA03FA0222140130EB
:10029A000310F80CF70CFF3E031D4D290130A00294
:1002AA00031D582959293429210803195D295E2972
:1002BA006329A209A309A20A0319A30A2308F800B9
:1002CA002208F70008000310831203133C0D3D0DAA
:1002DA00BE003E08C4004408031D742975297E29FE
:1002EA000030BD000030BC000030BB000030BA0056
:1002FA00E3293A08BE003B08BF003C08C0003D089D
:10030A00C1001F300310C10CC00CBF0CBE0CFF3E55
:10031A00031D87293E08C2004208C300BC17FF30EC
:10032A00BA05FF30BB05FF30BC050030BD0596306D
:10033A00C402C41FA129A229BC294408803A973EB5
:10034A000318A829A929AA29752901300310BD0C67
:10035A00BC0CBB0CBA0CFF3E031DAB290130BE001E
:10036A003E08C407031DBA29BB29AA29D32920306C
:10037A004402031CC129C229CE2975290130BE00B5
:10038A000310BA0DBB0DBC0DBD0DBE0BC529013046
:10039A00C4024408031DD229D329C32943080319D7
:1003AA00D729D829E329BA09BB09BC09BD09BA0A60
:1003BA000319BB0A0319BC0A0319BD0A0800F8008D
:1003CA0078080319E929EA29FE29F31FED29EE29FC
:1003DA00FE297009FA007109FB007209FC00730911
:1003EA00FD00FA0A0319FB0A0319FC0A0319FD0A9C
:1003FA00062A7308FD007208FC007108FB007008E9
:10040A00FA007308720471047004031D0D2A0E2A7F
:10041A00172A0030F3000030F2000030F1000030FB
:10042A00F0009D2A9630F4007408F900292A013058
:10043A00F4007408F90701300310FD0CFC0CFB0CE6
:10044A00FA0CFF3E031D212AFE307D05031D2E2ACC
:10045A002F2A1C2A4B2A0130F4007408F9070130AC
:10046A00FA07003003180130FB0700300318013087
:10047A00FC07003003180130FD0701300310FD0CA2
:10048A00FC0CFB0CFA0CFF3E031D432AFF307D05D2
:10049A00031D502A512A302A5D2A0130F9020130FF
:1004AA00F4000310FA0DFB0DFC0DFD0DF40B562A9A
:1004BA00FC1B602A612A672A023079020318662A1D
:1004CA00672A522A79186A2A6B2A732AFF30FA0590
:1004DA00FF30FB057F30FC05FF30FD050310F90CEA
:1004EA007908F400F501F601F70118300310F40D4C
:1004FA00F50DF60DF70DFF3E031D7B2A7408FA046D
:10050A007508FB047608FC047708FD0478080319CB
:10051A008F2A902A952AF31F932A942A952AFD173F
:10052A007D08F3007C08F2007B08F1007A08F000ED
:10053A00080083120313AB002130A3002308A6008E
:10054A006F2B25302C060319AB2AAC2AB82A2C08A3
:10055A00A3002B0884002308831380000130A30022
:10056A002308AB076F2BA7010130A007FF30200734
:10057A0084000A128A150A200A128A11AC00A30002
:10058A00A4012408003A0319CB2A6F2B2308003A46
:10059A000319812B643A0319D62A0D3A0319D62A6C
:1005AA006F2B2608840083130008A900840A000818
:1005BA00AA000230A3002308A607AA1FE52AE62AF2
:1005CA00EF2A0330A3002308A704A909AA09A90A44
:1005DA000319AA0AAC01AC0A2C08A3002307013E9E
:1005EA0084000A128A150A200A128A11A4000A1221
:1005FA008A150A200A128A11A50025082A02031D53
:10060A00082B2408290203180B2B0C2B0D2B172B54
:10061A000130A3002308AC0705302C06031D162B56
:10062A00172BF12A2708033903191C2B1D2B282BFA
:10063A002D30A3002B088400230883138000013087
:10064A00A3002308AB072C08A3002308A800662BE5
:10065A000A30F8000030F9002808A3002307013EF9
:10066A0084000A128A150A200A128A11F0000A1254
:10067A008A150A200A128A11F1002A08F3002908A9
:10068A00F2000A128A1506270A128A117108FB005B
:10069A007008FA000A128A154C260A128A1178087A
:1006AA00303E83120313A4002408AC002C08A300D4
:1006BA002B0884002308831380000130A300230839
:1006CA00AB07FF30A3002308A807280A031D6E2BD7
:1006DA006F2B2D2B0130A007FF30200784000A1250
:1006EA008A150A200A128A11A3002308AC002C08D2
:1006FA00031D802B812BA62A2B08840083138001DB
:10070A0008000A128A1586260A128A110A128A15FE
:10071A0077250A128A115130F0000030F1000A12CE
:10072A008A1589250A128A110030F000F1000A128E
:10073A008A1105200A128A11700883120313C50050
:10074A004508CF000A128A1580250A128A11033039
:10075A0083120313C7000830C6007630C500C50BE4
:10076A00B42BC60BB42BC70BB42B00000A128A1584
:10077A0077250A128A113130F0000030F1000A128E
:10078A008A1589250A128A110030F000F1000A122E
:10079A008A1105200A128A11700883120313C500F0
:1007AA004508CE000A128A1580250A128A110330DA
:1007BA0083120313C7000830C6007630C500C50B84
:1007CA00E42BC60BE42BC70BE42B000083120313A4
:1007DA004F08C500C601C701C8014808F300470809
:1007EA00F2004608F1004508F00001300A128A11A9
:1007FA00E4210A128A11730883120313A7007208EC
:10080A00A6007108A5007008A4003C30A300A0301F
:10081A00A200A530A1002730A0000A128A11922452
:10082A000A128A11831203132308BD002208BC008E
:10083A002108BB002008BA000A128A1168210A128C
:10084A008A11831203133A08C9004908CA004E08DC
:10085A000A128A1133200A128A11F301F30A0230AA
:10086A000A128A15CF250A128A111B308312031322
:10087A00C5004508A0004A08C600C7014608A100ED
:10088A004708A20050300A128A119E220A128A11BF
:10089A005030F2000030F3000A128A15C4260A12F8
:1008AA008A11213083120313C5004508A0004C08A1
:1008BA00C600C7014608A1004708A20050300A1224
:1008CA008A119E220A128A115030F2000030F30077
:1008DA000A128A15C4260A128A11233083120313B4
:1008EA00C5004508A0004B08C600C7014608A1007C
:1008FA004708A20050300A128A119E220A128A114F
:10090A005030F2000030F3000A128A15C4260A1287
:10091A008A118B2B0A128A110028831203132308C7
:10092A008039A8002808AD002308A8002807A900D4
:10093A002908B300A21FA22CA32CA42C3314330819
:10094A000319A82CA92CB82C330A031DAD2CAE2CE4
:10095A00B62C0030A3000030A2000030A100003005
:10096A00A000A217C02C0030A3000030A200003063
:10097A00A1000030A00027088039A8002808AD0689
:10098A002708A8002807A9002908B200A61FCE2C0C
:10099A00CF2CD02C321432080319D42CD52CE42CA9
:1009AA00320A031DD92CDA2CE22C0030A7000030C1
:1009BA00A6000030A5000030A400A617EC2C0030D9
:1009CA00A7000030A6000030A5000030A4003208BD
:1009DA000319F02CF12CF62C3308031DF52CF62CF8
:1009EA00FF2C0030A3000030A2000030A10000302C
:1009FA00A000F22F2008A8002808F00026080A12F2
:100A0A008A15ED250A128A11710883120313B90097
:100A1A007008B8003808A800A901AA01AB012B0880
:100A2A00B1002A08B0002908AF002808AE0039082A
:100A3A00A800A901AA01AB012B08B7002A08B60031
:100A4A002908B5002808B4002108A8002808F000E1
:100A5A0025080A128A15ED250A128A1171088312CD
:100A6A000313B9007008B8003808A800A901AA0140
:100A7A00AB012808AE07290803110318013E031920
:100A8A00472DAF072A0803110318013E03194E2DFB
:100A9A00B0072B0803110318013E0319552DB1079E
:100AAA003908A800A901AA01AB012808B407290836
:100ABA0003110318013E0319632DB5072A08031110
:100ACA000318013E03196A2DB6072B0803110318F0
:100ADA00013E0319712DB7072208A8002808F00063
:100AEA0024080A128A15ED250A128A11710883123E
:100AFA000313B9007008B8003808A800A901AA01B0
:100B0A00AB012808AE07290803110318013E03198F
:100B1A008F2DAF072A0803110318013E0319962DDA
:100B2A00B0072B0803110318013E03199D2DB107C5
:100B3A003908A800A901AA01AB012808B4072908A5
:100B4A0003110318013E0319AB2DB5072A08031137
:100B5A000318013E0319B22DB6072B080311031817
:100B6A00013E0319B92DB7070830A8000310AE0DCE
:100B7A00AF0DB00DB10DA80BBB2D2108A800280898
:100B8A00F00024080A128A15ED250A128A11710842
:100B9A0083120313B9007008B8003808A80039088E
:100BAA00A900AA01AB012808AE07290803110318F6
:100BBA00013E0319E12DAF072A0803110318013E6C
:100BCA000319E82DB0072B0803110318013E031976
:100BDA00EF2DB1072008A8002808F00025080A12FE
:100BEA008A15ED250A128A11710883120313B900B6
:100BFA007008B8003808A8003908A900AA01AB0192
:100C0A002808AE07290803110318013E03190E2EFE
:100C1A00AF072A0803110318013E0319152EB0075E
:100C2A002B0803110318013E03191C2EB1070830C3
:100C3A00A8000310AE0DAF0DB00DB10DA80B1E2EFE
:100C4A002008A8002808F00024080A128A15ED25B1
:100C5A000A128A11710883120313B9007008B800C6
:100C6A003808A8003908A900AA01AB012808AE076C
:100C7A00290803110318013E0319442EAF072A0855
:100C8A0003110318013E03194B2EB0072B08031159
:100C9A000318013E0319522EB1072108A80028089B
:100CAA00F00026080A128A15ED250A128A1171081F
:100CBA0083120313B9007008B8003808A80039086D
:100CCA00A900AA01AB012808B407290803110318CF
:100CDA00013E0319712EB5072A0803110318013EB4
:100CEA000319782EB6072B0803110318013E0319BE
:100CFA007F2EB7072208A8002808F00025080A1244
:100D0A008A15ED250A128A11710883120313B90094
:100D1A007008B8003808A8003908A900AA01AB0170
:100D2A002808B407290803110318013E03199E2E47
:100D3A00B5072A0803110318013E0319A52EB607A1
:100D4A002B0803110318013E0319AC2EB70722081A
:100D5A00A8002808F00026080A128A15ED250A12AA
:100D6A008A11710883120313B9007008B800380891
:100D7A00A8003908A900AA01AB0108300310A80D80
:100D8A00A90DAA0DAB0DFF3E031DC32E2808B407FB
:100D9A00290803110318013E0319D42EB5072A089E
:100DAA0003110318013E0319DB2EB6072B080311A2
:100DBA000318013E0319E22EB7072E08A8002F08D0
:100DCA00A9003008AA003108AB0018300310AB0C98
:100DDA00AA0CA90CA80CFF3E031DEB2E2808B40789
:100DEA00290803110318013E0319FC2EB5072A0826
:100DFA0003110318013E0319032FB6072B08031129
:100E0A000318013E03190A2FB7070830A800031078
:100E1A00AE0DAF0DB00DB10DA80B0C2F3308320774
:100E2A00A800A901A90D2808823EB80029080318BC
:100E3A00013EFF3EB9003E2F0130A8000310B40D59
:100E4A00B50DB60DB70DA80B232FB11F2D2F2E2FC1
:100E5A002F2F34140130A8000310AE0DAF0DB00DC2
:100E6A00B10DA80B312FFF30B8070318B90AFF30AC
:100E7A00B907B61F412F422F212FB201B11F462FAA
:100E8A00472F632FFF302E05A800FF302F05A9003A
:100E9A00FF303005AA007F303105AB002B082A0449
:100EAA002904280403195A2F5B2F5E2FB201B20AB4
:100EBA00632F341C612F622F632F5B2F32080319B3
:100ECA00672F682F992F0130B407003003180130BB
:100EDA00B507003003180130B60700300318013097
:100EEA00B707371C792F7A2F992F3408A8003508AD
:100EFA00A9003608AA003708AB000130AC002B0D58
:100F0A00AB0CAA0CA90CA80CAC0B842F2B08B700AD
:100F1A002A08B6002908B5002808B4000130B80725
:100F2A000318B90A0030B9073908803AFF0080303F
:100F3A007F02031DA22FFF303802031CA52FA62F04
:100F4A00B12F7F3083120313B7008030B600003010
:100F5A00B5000030B400E62F831203133908803A33
:100F6A00FF0080307F02031DBC2F013038020318B6
:100F7A00BF2FC02FCC2F003083120313B7000030CD
:100F8A00B6000030B5000030B400AD01E62F831280
:100F9A0003133808A8002808B300FF30B405FF304F
:100FAA00B5057F30B6050030B705331CDD2FDE2FBF
:100FBA00DF2FB6173308A8000310280CA900290848
:100FCA00B7002D08A8002808B7043708A300360878
:100FDA00A2003508A1003408A000080083120313F8
:100FEA00CA01CB01CC01CD01CE01CF01D0018301D1
:100FFA000A128A11862BFF1B0A2883137F1883176C
:10100A000008840A0319FF0A080008308A00040845
:10101A00840A82070034013400340A340034643408
:10102A000034E83403341034273450346F347434C1
:10103A003A34203443346F346E343A3420345434DE
:10104A0065346D3470343A340034203425346434D1
:10105A0056342034003420342034253464340034A7
:101AEE000A128A1593250A128A15831603131114E6
:101AFE0008000A128A1593250A128A1583160313F3
:101B0E00111508000A128A1593250A128A157008F3
:101B1E008312031393000800831603131419982DD0
:101B2E00992D932D11081F39031D9E2D9F2D932D39
:101B3E00080000300A128A15BC250A128A150130D7
:101B4E000A128A15BC250A128A150800F1008312A2
:101B5E00031307177108880087170D30F000F00B7C
:101B6E00B62D8312031387130800F200831203139A
:101B7E0007137208880087170730F1007D30F000D8
:101B8E00F00BC72DF10BC72D83120313871308001B
:101B9E00F4007403031DD42DD52DDE2D73080F39DB
:101BAE0080380A128A15BC250A128A15EC2D0230CD
:101BBE007406031DE32DE42DEC2D73080F39C03888
:101BCE000A128A15BC250A128A150800F800F401BB
:101BDE00F5017008F200F3017208F6007308F700C1
:101BEE00781CFA2DFB2D012E7608F4070318F50A42
:101BFE007708F50701300310F60DF70DFF3E031DB4
:101C0E00022E0310F80C7808031D0E2E0F2EF72D42
:101C1E007508F1007408F0000800283083120313D1
:101C2E009400831603139101831203132008A4005A
:101C3E002108A5002208A6002308A70002300310E1
:101C4E00A40DA50DA60DA70DFF3E031D262E2708DC
:101C5E00F3002608F2002508F1002408F0000030F9
:101C6E00F7007A30F6001230F5000030F4000A1258
:101C7E008A1199200A128A157008FF3E83160313E3
:101C8E009300940187150716080078087904031944
:101C9E00512E522E812EFD01FD0A602E01300310B1
:101CAE00F80DF90DFF3E031D562E0130FC007C0889
:101CBE00FD07F91F632E642E552E79087B02031D36
:101CCE006A2E78087A02031C6D2E6E2E742E7808FA
:101CDE00FA027908031CFB03FB0201300310F90C16
:101CEE00F80CFF3E031D752E0130FD02031D802EE4
:101CFE00812E642E7B08F9007A08F80008008316FE
:101D0E000317880189018316031385018601870154
:101D1E0088018312031386017030831603138F0418
:101D2E008F110F14003083120313A3000130A20091
:101D3E008630A100A030A0000A128A1514260A12BD
:101D4E008A150A128A15A3270A128A150A128A15EB
:101D5E00A0250A128A15F301F30A01300A128A1518
:101D6E00CF250A128A150B30F2008030F3000A12CA
:101D7E008A15C4260A128A150800F701F801E92E01
:101D8E0077087207F5007308F4000318F40AF71FBA
:101D9E00D12EF4037408F600760883120313FF00A5
:101DAE00750884000A128A1500200A128A150A1272
:101DBE008A15AD250A128A150130F7070318F80A9D
:101DCE000030F80777087207F5007308F40003185F
:101DDE00F40AF71FF32EF4037408F6007608831244
:101DEE000313FF00750884000A128A1500200A12D8
:101DFE008A15003A031D042F052FC72E0800F50182
:101E0E00F6017008710403190D2F0E2F452FF701DF
:101E1E00F70A1C2F01300310F00DF10DFF3E031DCC
:101E2E00122F0130F4007408F707F11F1F2F202F17
:101E3E00112F01300310F50DF60DFF3E031D212F5E
:101E4E0071087302031D2D2F70087202031C302FB0
:101E5E00312F382F7008F2027108031CF303F302BE
:101E6E00751401300310F10CF00CFF3E031D392FD9
:101E7E000130F702031D442F452F202F7608F10065
:101E8E007508F0000800F601F31F4E2F4F2F562F46
:101E9E00F209F309F20A0319F30AF601F60AF11F21
:101EAE00592F5A2F5F2FF009F109F00A0319F10A81
:101EBE00700871040319642F652F942FF501F50A2C
:101ECE00732F01300310F00DF10DFF3E031D692F2E
:101EDE000130F4007408F507F11F762F772F682F65
:101EEE0071087302031D7D2F70087202031C802F70
:101EFE00812F872F7008F2027108031CF303F3027F
:101F0E0001300310F10CF00CFF3E031D882F013041
:101F1E00F502031D932F942F772F76080319982F10
:101F2E00992F9E2FF209F309F20A0319F30A730887
:101F3E00F1007208F00008008312031388011A30B2
:101F4E00F400F830F300F30BAA2FF40BAA2F0000C5
:101F5E0030300A128A15BC250A128A150730F40091
:101F6E007D30F300F30BB92FF40BB92F30300A127A
:101F7E008A15BC250A128A150F30F4004730F3007B
:101F8E00F30BC72FF40BC72FCC2F30300A128A1544
:101F9E00BC250A128A1538300A128A15BC250A1277
:101FAE008A1510300A128A15BC250A128A150130BC
:101FBE000A128A15BC250A128A1506300A128A15CB
:101FCE00BC250A128A1510300A128A15BC250A126F
:101FDE008A150C300A128A15BC250A128A1582300F
:101FEE00F400DD30F300F30BFA2FF40BFA2FFF2F72
:021FFE000800D9
:04400E00C420FF3F8C
:00000001FF
