:020000040000FA
:060000000A128A11F92F1B
:100CEE000A128A1193260A128A11831603131114FB
:100CFE0008000A128A1193260A128A118316031308
:100D0E00111508000A128A1193260A128A11700808
:100D1E008312031393000800831603131419982EDD
:100D2E00992E932E11081F39031D9E2E9F2E932E42
:100D3E0008008316031788018901831603138501A2
:100D4E008601870188018312031386017030831692
:100D5E0003138F048F110F14003083120313A3009B
:100D6E000130A2008630A100A030A0000A128A1124
:100D7E00F4260A128A1183120313AB0108000A1219
:100D8E008A1193260A128A118316031391150A12D9
:100D9E008A1193260A128A11831203131308F20082
:100DAE00F3017208F4007308F5000A128A119326F3
:100DBE000A128A1170037104031DE62EE72EEB2E24
:100DCE00831603139112EE2E83160313911611162A
:100DDE007508F1007408F000080028308312031320
:100DEE009400831603139101831203132008A400A9
:100DFE002108A5002208A6002308A7000230031030
:100E0E00A40DA50DA60DA70DFF3E031D062F270849
:100E1E00F3002608F2002508F1002408F000003047
:100E2E00F7007A30F6001230F5000030F4000A12A6
:100E3E008A112C270A128A117008FF3E831603139B
:100E4E00930094018715071608000030FC0000304F
:100E5E00FB000030FA000030F900730872047104D0
:100E6E00700403193B2F3C2F892FFD01FD0A4C2FD7
:100E7E000130F8000310F00DF10DF20DF30DF80B2B
:100E8E00412F0130F8007808FD07F31F4F2F502F28
:100E9E003F2F0130F8000310F90DFA0DFB0DFC0D7C
:100EAE00F80B522F73087702031D672F7208760214
:100EBE00031D672F71087502031D672F70087402DA
:100ECE00031C6A2F6B2F7A2F7008F4027108031C13
:100EDE00710FF5027208031C720FF6027308031CE1
:100EEE00730FF702791401300310F30CF20CF10CAE
:100EFE00F00CFF3E031D7B2F0130FD02031D882FDA
:100F0E00892F502F7C08F3007B08F2007A08F1003D
:100F1E007908F00008000A128A11A0260A128A1116
:100F2E000A128A1177260A128A115030F000003008
:100F3E00F1000A128A1189260A128A110030F00075
:100F4E00F1000A128A1189260A128A110A128A11CE
:100F5E0080260A128A11033083120313AA00083066
:100F6E00A9007630A800A80BBA2FA90BBA2FAA0B8E
:100F7E00BA2F00000A128A1177260A128A115130EE
:100F8E00F0000030F1000A128A1189260A128A1125
:100F9E000030F000F1000A128A11C6260A128A11D8
:100FAE0070088312031386000A128A1180260A1211
:100FBE008A11033083120313AA000830A900763079
:100FCE00A800A80BE82FA90BE82FAA0BE82F00000A
:100FDE00013083120313A8002808AB07972F0A12BB
:100FEE008A11002883120313AB0183010A128A119E
:020FFE00922F30
:04400E00C420FF3F8C
:00000001FF
