:020000040000FA
:060000000A128A11F92F1B
:100CD6000A128A1187260A128A118316031311141F
:100CE60008000A128A1187260A128A11831603132C
:100CF600111508000A128A1187260A128A1170082D
:100D060083120313930008008316031314198C2E01
:100D16008D2E872E11081F39031D922E932E872E96
:100D260008008316031788018901831603138501BA
:100D360086018701880183120313860170308316AA
:100D460003138F048F110F14003083120313A300B3
:100D56000130A2008630A100A030A0000A128A113C
:100D6600E8260A128A1183120313AB0108000A123D
:100D76008A1187260A128A118316031391150A12FD
:100D86008A1187260A128A11831203131308F200A6
:100D9600F3017208F4007308F5000A128A11872617
:100DA6000A128A1170037104031DDA2EDB2EDF2E60
:100DB600831603139112E22E83160313911611164E
:100DC6007508F1007408F000080028308312031338
:100DD6009400831603139101831203132008A400C1
:100DE6002108A5002208A6002308A7000230031048
:100DF600A40DA50DA60DA70DFF3E031DFA2E27086F
:100E0600F3002608F2002508F1002408F00000305F
:100E1600F7007A30F6001230F5000030F4000A12BE
:100E26008A1120270A128A117008FF3E83160313BF
:100E3600930094018715071608000030FC00003067
:100E4600FB000030FA000030F900730872047104E8
:100E5600700403192F2F302F7D2FFD01FD0A402F1F
:100E66000130F8000310F00DF10DF20DF30DF80B43
:100E7600352F0130F8007808FD07F31F432F442F64
:100E8600332F0130F8000310F90DFA0DFB0DFC0DA0
:100E9600F80B462F73087702031D5B2F7208760244
:100EA600031D5B2F71087502031D5B2F700874020A
:100EB600031C5E2F5F2F6E2F7008F4027108031C4F
:100EC600710FF5027208031C720FF6027308031CF9
:100ED600730FF702791401300310F30CF20CF10CC6
:100EE600F00CFF3E031D6F2F0130FD02031D7C2F0A
:100EF6007D2F442F7C08F3007B08F2007A08F1006E
:100F06007908F00008000A128A1194260A128A113A
:100F16000A128A116B260A128A119030F0000030EC
:100F2600F1000A128A117D260A128A110030F00099
:100F3600F1000A128A117D260A128A110A128A11F2
:100F460074260A128A11033083120313AA0008308A
:100F5600A9007630A800A80BAE2FA90BAE2FAA0BBE
:100F6600AE2F00000A128A116B260A128A119130DE
:100F7600F0000030F1000A128A117D260A128A1149
:100F86000030F000F1000A128A11BA260A128A11FC
:100F960070088312031387000030F000F1000A1274
:100FA6008A11BA260A128A11700883120313860060
:100FB6000A128A1174260A128A1103308312031345
:100FC600AA000830A9007630A800A80BE82FA90BC4
:100FD600E82FAA0BE82F0000013083120313A800A4
:100FE6002808AB078B2F0A128A11002883120313D5
:0A0FF600AB0183010A128A11862F55
:04400E00C420FF3F8C
:00000001FF
