:020000040000FA
:060000000A128A11EF2F25
:10001200F501F60170087104031910281128482807
:10002200F701F70A1F2801300310F00DF10DFF3E12
:10003200031D15280130F4007408F707F11F222868
:100042002328142801300310F50DF60DFF3E031D81
:10005200242871087302031D302870087202031CE1
:10006200332834283B287008F2027108031CF3037A
:10007200F302751401300310F10CF00CFF3E031D66
:100082003C280130F702031D472848282328760818
:10009200F1007508F00008000310831203133C0DF1
:1000A2003D0DBE003E08C4004408031D59285A28CD
:1000B20063280030BD000030BC000030BB000030BF
:1000C200BA00C8283A08BE003B08BF003C08C0007E
:1000D2003D08C1001F300310C10CC00CBF0CBE0C88
:1000E200FF3E031D6C283E08C2004208C300BC1735
:1000F200FF30BA05FF30BB05FF30BC050030BD053F
:100102009630C402C41F86288728A1284408803A52
:10011200973E03188D288E288F285A280130031005
:10012200BD0CBC0CBB0CBA0CFF3E031D9028013069
:10013200BE003E08C407031D9F28A0288F28B828A8
:1001420020304402031CA628A728B3285A280130CD
:10015200BE000310BA0DBB0DBC0DBD0DBE0BAA280F
:100162000130C4024408031DB728B828A828430850
:100172000319BC28BD28C828BA09BB09BC09BD0996
:10018200BA0A0319BB0A0319BC0A0319BD0A0800FB
:10019200F80078080319CE28CF28E328F31FD228C5
:1001A200D328E3287009FA007109FB007209FC00E8
:1001B2007309FD00FA0A0319FB0A0319FC0A031961
:1001C200FD0AEB287308FD007208FC007108FB00B1
:1001D2007008FA007308720471047004031DF22897
:1001E200F328FC280030F3000030F2000030F10068
:1001F2000030F00082299630F4007408F9000E29CC
:100202000130F4007408F90701300310FD0CFC0CF6
:10021200FB0CFA0CFF3E031D0629FE307D05031D73
:1002220013291429012930290130F4007408F9072F
:100232000130FA07003003180130FB0700300318C1
:100242000130FC07003003180130FD0701300310B4
:10025200FD0CFC0CFB0CFA0CFF3E031D2829FF30A1
:100262007D05031D35293629152942290130F90258
:100272000130F4000310FA0DFB0DFC0DFD0DF40B23
:100282003B29FC1B452946294C29023079020318D7
:100292004B294C29372979184F2950295829FF30E1
:1002A200FA05FF30FB057F30FC05FF30FD0503102A
:1002B200F90C7908F400F501F601F7011830031082
:1002C200F40DF50DF60DF70DFF3E031D60297408C0
:1002D200FA047508FB047608FC047708FD04780824
:1002E2000319742975297A29F31F782979297A291A
:1002F200FD177D08F3007C08F2007B08F1007A0804
:10030200F000080083120313AB002130A30023087E
:10031200A600542A25302C060319902991299D29DB
:100322002C08A3002B0884002308831380000130CB
:10033200A3002308AB07542AA7010130A007FF300E
:10034200200784000A128A150A200A128A11AC00B8
:10035200A300A4012408003A0319B029542A23084F
:10036200003A0319662A643A0319BB290D3A0319A4
:10037200BB29542A2608840083130008A900840A92
:100382000008AA000230A3002308A607AA1FCA2950
:10039200CB29D4290330A3002308A704A909AA0959
:1003A200A90A0319AA0AAC01AC0A2C08A300230764
:1003B200013E84000A128A150A200A128A11A40038
:1003C2000A128A150A200A128A11A50025082A0291
:1003D200031DED29240829020318F029F129F22925
:1003E200FC290130A3002308AC0705302C06031DAD
:1003F200FB29FC29D629270803390319012A022AD5
:100402000D2A2D30A3002B088400230883138000BB
:100412000130A3002308AB072C08A3002308A8007F
:100422004B2A0A30F8000030F9002808A3002307FD
:10043200013E84000A128A150A200A128A11F0006B
:100442000A128A150A200A128A11F1002A08F300F8
:100452002908F2000A128A1109200A128A11710867
:10046200FB007008FA000A128A155B250A128A112B
:100472007808303E83120313A4002408AC002C0831
:10048200A3002B0884002308831380000130A300FB
:100492002308AB07FF30A3002308A807280A031D7F
:1004A200532A542A122A0130A007FF302007840061
:1004B2000A128A150A200A128A11A3002308AC0024
:1004C2002C08031D652A662A8B292B0884008313B6
:1004D200800108000A128A1595250A128A110A1249
:1004E2008A1533240A128A115130F0000030F100CB
:1004F2000A128A1545240A128A110030F000F1000E
:100502000A128A15F5240A128A117008831203133B
:10051200C5004508D3000A128A153C240A128A1122
:10052200033083120313C7000830C6007630C500BB
:10053200C50B992AC60B992AC70B992A0000831268
:1005420003135308C500C601C701C8014808F300D8
:100552004708F2004608F1004508F00001300A128F
:100562008A11C9200A128A11730883120313A70081
:100572007208A6007108A5007008A4003C30A30010
:10058200A030A200A530A1002730A0000A128A11D3
:100592008E240A128A11831203132308BD00220833
:1005A200BC002108BB002008BA000A128A114D20A3
:1005B2000A128A11831203133A08C9004908CE00AD
:1005C200F301F30A02300A128A158B240A128A11E5
:1005D2001B3083120313C5004508A0004E08C60055
:1005E200C7014608A1004708A20054300A128A1126
:1005F20083210A128A115430F2000030F3000A12E9
:100602008A15D3250A128A110A128A1533240A126C
:100612008A113130F0000030F1000A128A154524A7
:100622000A128A110030F000F1000A128A15F5242C
:100632000A128A11700883120313C5004508D200FA
:100642000A128A153C240A128A11033083120313F8
:10065200C7000830C6007630C500C50B2E2BC60B6E
:100662002E2BC70B2E2B00008312031352080A12E3
:100672008A15CB260A128A11223083120313C5006F
:100682004508A0005008C600C7014608A100470857
:10069200A20054300A128A1183210A128A1154309C
:1006A200F2000030F3000A128A15D3250A128A11C9
:1006B200243083120313C5004508A0004F08C6006A
:1006C200C7014608A1004708A20054300A128A1145
:1006D20083210A128A115430F2000030F3000A1208
:1006E2008A15D3250A128A110A128A1533240A128C
:1006F2008A119030F0000030F1000A128A15452468
:100702000A128A11EE30F0000030F1000A128A1546
:1007120045240A128A110A128A153C240A128A11E5
:10072200033083120313C7000830C6007630C500B9
:10073200C50B992BC60B992BC70B992B00000A12DC
:100742008A1533240A128A119030F0000030F10029
:100752000A128A1545240A128A11AA30F0000030C2
:10076200F1000A128A1545240A128A110A128A1500
:100772003C240A128A11033083120313C700083083
:10078200C6007630C500C50BC42BC60BC42BC70BE5
:10079200C42B00000A128A1533240A128A119130DE
:1007A200F0000030F1000A128A1545240A128A115B
:1007B2000030F000F1000A128A15F5240A128A119B
:1007C200700883120313C5004508CD000030F00005
:1007D200F1000A128A15F5240A128A11700883128E
:1007E2000313C5004508CC000A128A153C240A12DC
:1007F2008A11033083120313C7000830C600763013
:10080200C500C50B022CC60B022CC70B022C000024
:10081200831203134D084C07CA00CB01CB0D0030E5
:10082200F7007B30F8004B08F1004A08F0007D30F9
:10083200F2000030F3000A128A15A9240A128A1162
:100842007108FA007008F9000A128A1597270A122D
:100852008A11780883120313CB007708CA004D0867
:100862000A128A15CB260A128A1121308312031327
:10087200C5004508A0005108C600C7014608A100EE
:100882004708A20054300A128A1183210A128A11DF
:100892005430F2000030F3000A128A15D3250A12EE
:1008A2008A11243083120313C5004508A0005008A2
:1008B200C600C7014608A1004708A20054300A1228
:1008C2008A1183210A128A115430F2000030F30097
:1008D2000A128A15D3250A128A11243083120313AD
:1008E200C5004508A0004F08C600C7014608A10080
:1008F2004708A20054300A128A1183210A128A116F
:100902005430F2000030F3000A128A15D3250A127D
:100912008A11702A0A128A110028831203132308EB
:100922008039A8002808AD002308A8002807A900DC
:100932002908B300A21F9E2C9F2CA02C331433082D
:100942000319A42CA52CB42C330A031DA92CAA2C00
:10095200B22C0030A3000030A2000030A100003011
:10096200A000A217BC2C0030A3000030A20000306F
:10097200A1000030A00027088039A8002808AD0691
:100982002708A8002807A9002908B200A61FCA2C18
:10099200CB2CCC2C321432080319D02CD12CE02CC5
:1009A200320A031DD52CD62CDE2C0030A7000030D5
:1009B200A6000030A5000030A400A617E82C0030E5
:1009C200A7000030A6000030A5000030A4003208C5
:1009D2000319EC2CED2CF22C3308031DF12CF22C14
:1009E200FB2C0030A3000030A2000030A100003038
:1009F200A000EE2F2008A8002808F00026080A12FE
:100A02008A15CE240A128A11710883120313B900BF
:100A12007008B8003808A800A901AA01AB012B0888
:100A2200B1002A08B0002908AF002808AE00390832
:100A3200A800A901AA01AB012B08B7002A08B60039
:100A42002908B5002808B4002108A8002808F000E9
:100A520025080A128A15CE240A128A1171088312F5
:100A62000313B9007008B8003808A800A901AA0148
:100A7200AB012808AE07290803110318013E031928
:100A8200432DAF072A0803110318013E03194A2D0B
:100A9200B0072B0803110318013E0319512DB107AA
:100AA2003908A800A901AA01AB012808B40729083E
:100AB20003110318013E03195F2DB5072A0803111C
:100AC2000318013E0319662DB6072B0803110318FC
:100AD200013E03196D2DB7072208A8002808F0006F
:100AE20024080A128A15CE240A128A117108831266
:100AF2000313B9007008B8003808A800A901AA01B8
:100B0200AB012808AE07290803110318013E031997
:100B12008B2DAF072A0803110318013E0319922DEA
:100B2200B0072B0803110318013E0319992DB107D1
:100B32003908A800A901AA01AB012808B4072908AD
:100B420003110318013E0319A72DB5072A08031143
:100B52000318013E0319AE2DB6072B080311031823
:100B6200013E0319B52DB7070830A8000310AE0DDA
:100B7200AF0DB00DB10DA80BB72D2108A8002808A4
:100B8200F00024080A128A15CE240A128A1171086A
:100B920083120313B9007008B8003808A800390896
:100BA200A900AA01AB012808AE07290803110318FE
:100BB200013E0319DD2DAF072A0803110318013E78
:100BC2000319E42DB0072B0803110318013E031982
:100BD200EB2DB1072008A8002808F00025080A120A
:100BE2008A15CE240A128A11710883120313B900DE
:100BF2007008B8003808A8003908A900AA01AB019A
:100C02002808AE07290803110318013E03190A2E0A
:100C1200AF072A0803110318013E0319112EB0076A
:100C22002B0803110318013E0319182EB1070830CF
:100C3200A8000310AE0DAF0DB00DB10DA80B1A2E0A
:100C42002008A8002808F00024080A128A15CE24D9
:100C52000A128A11710883120313B9007008B800CE
:100C62003808A8003908A900AA01AB012808AE0774
:100C7200290803110318013E0319402EAF072A0861
:100C820003110318013E0319472EB0072B08031165
:100C92000318013E03194E2EB1072108A8002808A7
:100CA200F00026080A128A15CE240A128A11710847
:100CB20083120313B9007008B8003808A800390875
:100CC200A900AA01AB012808B407290803110318D7
:100CD200013E03196D2EB5072A0803110318013EC0
:100CE2000319742EB6072B0803110318013E0319CA
:100CF2007B2EB7072208A8002808F00025080A1250
:100D02008A15CE240A128A11710883120313B900BC
:100D12007008B8003808A8003908A900AA01AB0178
:100D22002808B407290803110318013E03199A2E53
:100D3200B5072A0803110318013E0319A12EB607AD
:100D42002B0803110318013E0319A82EB707220826
:100D5200A8002808F00026080A128A15CE240A12D2
:100D62008A11710883120313B9007008B800380899
:100D7200A8003908A900AA01AB0108300310A80D88
:100D8200A90DAA0DAB0DFF3E031DBF2E2808B40707
:100D9200290803110318013E0319D02EB5072A08AA
:100DA20003110318013E0319D72EB6072B080311AE
:100DB2000318013E0319DE2EB7072E08A8002F08DC
:100DC200A9003008AA003108AB0018300310AB0CA0
:100DD200AA0CA90CA80CFF3E031DE72E2808B40795
:100DE200290803110318013E0319F82EB5072A0832
:100DF20003110318013E0319FF2EB6072B08031136
:100E02000318013E0319062FB7070830A800031084
:100E1200AE0DAF0DB00DB10DA80B082F3308320780
:100E2200A800A901A90D2808823EB80029080318C4
:100E3200013EFF3EB9003A2F0130A8000310B40D65
:100E4200B50DB60DB70DA80B1F2FB11F292F2A2FD5
:100E52002B2F34140130A8000310AE0DAF0DB00DCE
:100E6200B10DA80B2D2FFF30B8070318B90AFF30B8
:100E7200B907B61F3D2F3E2F1D2FB201B11F422FC2
:100E8200432F5F2FFF302E05A800FF302F05A9004A
:100E9200FF303005AA007F303105AB002B082A0451
:100EA200290428040319562F572F5A2FB201B20AC8
:100EB2005F2F341C5D2F5E2F5F2F572F32080319CF
:100EC200632F642F952F0130B407003003180130CF
:100ED200B507003003180130B6070030031801309F
:100EE200B707371C752F762F952F3408A8003508C1
:100EF200A9003608AA003708AB000130AC002B0D60
:100F0200AB0CAA0CA90CA80CAC0B802F2B08B700B9
:100F12002A08B6002908B5002808B4000130B8072D
:100F22000318B90A0030B9073908803AFF00803047
:100F32007F02031D9E2FFF303802031CA12FA22F18
:100F4200AD2F7F3083120313B7008030B60000301C
:100F5200B5000030B400E22F831203133908803A3F
:100F6200FF0080307F02031DB82F013038020318C2
:100F7200BB2FBC2FC82F003083120313B7000030E1
:100F8200B6000030B5000030B400AD01E22F83128C
:100F920003133808A8002808B300FF30B405FF3057
:100FA200B5057F30B6050030B705331CD92FDA2FCF
:100FB200DB2FB6173308A8000310280CA900290854
:100FC200B7002D08A8002808B7043708A300360880
:100FD200A2003508A1003408A00008008312031300
:100FE200CA01CB01CC01CD01CE01CF01D001D1018B
:100FF200D201D301D40183010A128A116B2AFF1B89
:101002000A2883137F1883170008840A0319FF0A2A
:10101200080008308A000408840A82070034013478
:1010220000340A34003464340034E83403341034B5
:10103200273450346F3474343A34203443346F34A8
:101042006E343A342034543465346D3470343A3466
:1010520000342034253464345634203400342034AF
:0A10620020342034253464340034B7
:101866000A128A154F240A128A15831603131114B5
:1018760008000A128A154F240A128A1583160313C2
:10188600111508000A128A154F240A128A157008C3
:101896008312031393000800831603131419542CA0
:1018A600552C4F2C11081F39031D5A2C5B2C4F2C1D
:1018B600080000300A128A1578240A128A150130A7
:1018C6000A128A1578240A128A150800F100831272
:1018D600031307177108880087170D30F000F00B07
:1018E600722C8312031387130800F200831203136A
:1018F60007137208880087170730F1007D30F00063
:10190600F00B832CF10B832C83120313871308002F
:10191600F4007403031D902C912C9A2C73080F3934
:1019260080380A128A1578240A128A15A82C0230E1
:101936007406031D9F2CA02CA82C73080F39C038E1
:101946000A128A1578240A128A150800F401F5018C
:10195600701CAE2CAF2CB52C7208F4070318F50AD0
:101966007308F50701300310F20DF30DFF3E031D5A
:10197600B62C01300310F10CF00CFF3E031DBD2CFC
:1019860070087104031DC82CC92CAB2C7508F10016
:101996007408F0000800F800F401F5017008F20080
:1019A600F3017208F6007308F700781CDB2CDC2CB8
:1019B600E22C7608F4070318F50A7708F5070130D4
:1019C6000310F60DF70DFF3E031DE32C0310F80C74
:1019D6007808031DEF2CF02CD82C7508F10074083C
:1019E600F00008000A128A154F240A128A15831677
:1019F600031391150A128A154F240A128A158312A7
:101A060003131308F200F3017208F4007308F500DB
:101A16000A128A154F240A128A1570037104031DCF
:101A2600152D162D1A2D8316031391121D2D8316AF
:101A36000313911611167508F1007408F0000800DA
:101A46002830831203139400831603139101831223
:101A560003132008A4002108A5002208A6002308D5
:101A6600A70002300310A40DA50DA60DA70DFF3E7D
:101A7600031D352D2708F3002608F2002508F1007E
:101A86002408F0000030F7007A30F6001230F50036
:101A96000030F4000A128A1531270A128A157008D6
:101AA600FF3E83160313930094018715071608005B
:101AB600780879040319602D612D902DFD01FD0A2A
:101AC6006F2D01300310F80DF90DFF3E031D652D36
:101AD6000130FC007C08FD07F91F722D732D642D63
:101AE60079087B02031D792D78087A02031C7C2D68
:101AF6007D2D832D7808FA027908031CFB03FB026F
:101B060001300310F90CF80CFF3E031D842D013043
:101B1600FD02031D8F2D902D732D7B08F9007A0889
:101B2600F80008008316031788018901831603133A
:101B360085018601870188018312031386017030AF
:101B4600831603138F048F110F14003083120313AF
:101B5600A3000130A2008630A100A030A0000A1226
:101B66008A1523250A128A150A128A156E260A1262
:101B76008A150A128A155C240A128A15F301F30AD9
:101B860001300A128A158B240A128A150B30F200CC
:101B96008030F3000A128A15D3250A128A15080026
:101BA600F701F801F82D77087207F5007308F400BD
:101BB6000318F40AF71FE02DF4037408F6007608FC
:101BC60083120313FF00750884000A128A15002089
:101BD6000A128A150A128A1569240A128A15013010
:101BE600F7070318F80A0030F80777087207F500B8
:101BF6007308F4000318F40AF71F022EF40374089E
:101C0600F600760883120313FF00750884000A1293
:101C16008A1500200A128A15003A031D132E142E67
:101C2600D62D0800F601F31F192E1A2E212EF209C1
:101C3600F309F20A0319F30AF601F60AF11F242E34
:101C4600252E2A2EF009F109F00A0319F10A700867
:101C5600710403192F2E302E5F2EF501F50A3E2E44
:101C660001300310F00DF10DFF3E031D342E01303F
:101C7600F4007408F507F11F412E422E332E710829
:101C86007302031D482E70087202031C4B2E4C2E45
:101C9600522E7008F2027108031CF303F30201309E
:101CA6000310F10CF00CFF3E031D532E0130F5021C
:101CB600031D5E2E5F2E422E76080319632E642EB8
:101CC600692EF209F309F20A0319F30A7308F100FF
:101CD6007208F00008008312031388011A30F4001A
:101CE600F830F300F30B752EF40B752E0000303030
:101CF6000A128A1578240A128A150730F4007D30F4
:101D0600F300F30B842EF40B842E30300A128A155E
:101D160078240A128A150F30F4004730F300F30BCB
:101D2600922EF40B922E972E30300A128A157824B2
:101D36000A128A1538300A128A1578240A128A1568
:101D460010300A128A1578240A128A1501300A12EE
:101D56008A1578240A128A1506300A128A157824FA
:101D66000A128A1510300A128A1578240A128A1560
:101D76000C300A128A1578240A128A158230F40069
:101D8600DD30F300F30BC52EF40BC52ECA2E08006A
:101D960083120313A9006430F7000030F800290805
:101DA600A400A5012408F9002508FA000A128A15DC
:101DB60097270A128A15770883120313A6002608A6
:101DC600D1000A30F7000030F8002908A400A50168
:101DD6002408F2002508F3006430F0000030F1001A
:101DE6000A128A1515260A128A157108FA00700851
:101DF600F9000A128A1597270A128A15770883129C
:101E06000313A6002608D0002908A400A50124086B
:101E1600F2002508F3006430F0000030F1000A12E9
:101E26008A1515260A128A15710883120313A8004B
:101E36007008A7000A30F0000030F1002808F3000F
:101E46002708F2000A128A1515260A128A15700842
:101E560083120313A4002408CF0008000030FC00FE
:101E66000030FB000030FA000030F90073087204FD
:101E7600710470040319402F412F8E2FFD01FD0AB6
:101E8600512F0130F8000310F00DF10DF20DF30D96
:101E9600F80B462F0130F8007808FD07F31F542F82
:101EA600552F442F0130F8000310F90DFA0DFB0DE4
:101EB600FC0DF80B572F73087702031D6C2F720861
:101EC6007602031D6C2F71087502031D6C2F7008B6
:101ED6007402031C6F2F702F7F2F7008F402710895
:101EE600031C710FF5027208031C720FF6027308C9
:101EF600031C730FF702791401300310F30CF20C74
:101F0600F10CF00CFF3E031D802F0130FD02031D76
:101F16008D2F8E2F552F7C08F3007B08F2007A0850
:101F2600F1007908F000080083120313A101F81FDD
:101F36009D2F9E2FA52FF709F809F70A0319F80A0E
:101F4600A101A10AFA1FA82FA92FB22FF909FA0990
:101F5600F90A0319FA0A0130FB007B08A106A2015F
:101F6600A301770878040319B92FBA2FF12FA0011E
:101F7600A00AC82F01300310F70DF80DFF3E031D10
:101F8600BE2F0130FB007B08A007F81FCB2FCC2FFC
:101F9600BD2F01300310A20DA30DFF3E031DCD2F53
:101FA60078087A02031DD92F77087902031CDC2FE3
:101FB600DD2FE42F7708F9027808031CFA03FA02EA
:101FC600221401300310F80CF70CFF3E031DE52F19
:101FD6000130A002031DF02FF12FCC2F2108031989
:101FE600F52FF62FFB2FA209A309A20A0319A30AAC
:0A1FF6002308F8002208F700080095
:04400E00C420FF3F8C
:00000001FF
