:020000040000FA
:060000000A128A110C280F
:10000800FE00030EF1000A08F2000A128A116E2A95
:100018000A128A110F28F901FA0183120313B80191
:10002800B901BA01BB01BC01BD0183010A128A11E1
:10003800072983120313B3002930AB002B08AE0045
:10004800F0282530340603192A282B2837283408A5
:10005800AB00330884002B08831380000130AB0009
:100068002B08B307F028AF010130A807FF30280795
:1000780084000A128A11AE220A128A11B400AB0057
:10008800AC012C08003A03194A28F0282B08003A3A
:1000980003190229643A031955280D3A03195528FA
:1000A800F0282E08840083130008B100840A000891
:1000B800B2000230AB002B08AE07B21F64286528D7
:1000C8006E280330AB002B08AF04B109B209B10A9E
:1000D8000319B20AB401B40A3408AB002B07013E75
:1000E80084000A128A11AE220A128A11AC000A127E
:1000F8008A11AE220A128A11AD002D083202031DA0
:1001080087282C08310203188A288B288C289628DF
:100118000130AB002B08B40705303406031D9528C1
:10012800962870282F08033903199B289C28A7288C
:100138002D30AB00330884002B0883138000013076
:10014800AB002B08B3073408AB002B08B000E72836
:100158000A30A3000030A4003008AB002B07013E92
:1001680084000A128A11AE220A128A11F3000A12B6
:100178008A11AE220A128A11F4003208F6003108F8
:10018800F5000A128A116F210A128A117408831263
:100198000313A6007308A5000A128A11FA210A128D
:1001A8008A11831203132308303EAC002C08B400D4
:1001B8003408AB00330884002B0883138000013017
:1001C800AB002B08B307FF30AB002B08B007300A91
:1001D800031DEF28F028AC280130A807FF302807B6
:1001E80084000A128A11AE220A128A11AB002B0867
:1001F800B4003408031D0129022925283308840086
:100208008313800108000A128A1136220A128A1101
:10021800FF30831203138800033083120313B700DF
:100228008A30B6005530B500B50B1829B60B182919
:10023800B70B1829831203138801033083120313A1
:10024800B7008A30B6005530B500B50B2929B60B72
:100258002929B70B2929FF3083120313880003309B
:1002680083120313B7008A30B6005530B500B50BBA
:100278003B29B60B3B29B70B3B2983120313880193
:100288000B3083120313B5003508A8003C08B600EC
:10029800B7013608A9003708AA003D300A128A11AA
:1002A8001D200A128A113D300A128A1193220A125D
:1002B8008A11033083120313B7008A30B600553011
:1002C800B500B50B6529B60B6529B70B6529442917
:1002D8000A128A110C2883120313A101A2017308C0
:1002E8007404031978297929B029A001A00A87295B
:1002F80001300310F30DF40DFF3E031D7D2901307D
:10030800F7007708A007F41F8A298B297C29013078
:100318000310A10DA20DFF3E031D8C29740876025F
:10032800031D982973087502031C9B299C29A3297E
:100338007308F5027408031CF603F6022114013051
:100348000310F40CF30CFF3E031DA4290130A00296
:10035800031DAF29B0298B292208F4002108F300D6
:10036800080083120313981783160313181218131F
:10037800831203131813D229193083160313990013
:100388001815831603178711DF290C3083160313FA
:1003980099001811831603178711DF297408003A8A
:1003A8000319D729DF297308043A0319C0290C3A1D
:1003B8000319C929DF2975037604031DE429E529F2
:1003C800E929831603139816EC2983160313981248
:1003D80077037804031DF129F229F6298312031300
:1003E8001816F9298312031318120800831203132D
:1003F800230824040319012A022A312AA701A70A7B
:10040800102A01300310A30DA40DFF3E031D062A78
:100418000130F8007808A707A41F132A142A052A10
:1004280024082602031D1A2A23082502031C1D2A54
:100438001E2A242A2308A5022408031CA603A602B0
:1004480001300310A40CA30CFF3E031D252A013024
:10045800A702031D302A312A142A2608A4002508D9
:10046800A300080083160317880189018316031364
:1004780085010330860080308700880183120313CA
:100488008801831603130F088F3960388F008F1186
:100498000F1481138B150330960003309500043038
:1004A800F3000030F4000130F5000030F6000130B0
:1004B800F7000030F8000A128A11B5210A128A11D1
:1004C8000B178B17831603138C16831203138C12C6
:1004D800BC0108000B1C712A722A832A8312031399
:1004E8000618772A782A7C2A0130F0007008BC07A1
:1004F80086187F2A802A822A0130BC020B108312B8
:1005080003138C1E882A892A8C2A1A0888008C12C0
:1005180072088A00710E8300FE0E7E0E0900F40038
:10052800A52A74088400000883120313990083160F
:100538000313981CA02AA12A9B2A0130F3007308F0
:10054800F4077408840083130008031DAC2AAD2A3D
:10055800952A080002308A000408840A82070034B9
:10056800013400340A34003464340034E834033489
:0A05780010342734253464340034B5
:04400E00C420FF3F8C
:00000001FF
