:020000040000FA
:060000000A128A110C280F
:10000800FE00030EF7000A08F8000A128A111828E1
:100018000A128A110F28F001F101F201F301F4012B
:1000280083010A128A11F628831203130C1F1D2854
:100038001E2831281F0CF600760C0F39003A031DD4
:10004800262827282C281E08F6007608F4003028D1
:100058001E08F6007608F3000C138C1D342835288A
:1000680054280A128A1104210A128A11F600760805
:10007800F20074080A128A1114210A128A110A124B
:100088008A1104210A128A11F6007608F200730810
:100098000A128A1114210A128A11831203138C116D
:1000A80078088A00770E8300FE0E7E0E0900033062
:1000B80083160317880089012330831603138500EC
:1000C8008601183087008801083083120313A000C6
:1000D8000030A1000A128A118E200A128A1170308B
:1000E800831603138F048F110F140C170B17831229
:1000F80003138C11831603138C1583120313A001A9
:10010800A101A20124300A128A11BA200A128A1106
:100118008B170800831203131F14C3309F0583161F
:1001280003139F131F129F12831203139F10A928F2
:100138003F309F05B9281F083F3940389F00B9282C
:100148001F083F3980389F00B9282108003A031951
:10015800AE28B9282008013A03199C28053A031942
:100168009F280C3A0319A428B9280800F900831617
:1001780003138712791DC128C228CA2883120313C2
:1001880022088316031394008715D22883120313B9
:100198002008220483160313940087117908831218
:1001A8000313210494000800831203139F18DD2809
:1001B800DE28F5281F0CF900790C0F39003A031DC9
:1001C800E628E728EC281F08C33904389F00EE28E2
:1001D800C3309F052130F900F90BF028831203136F
:1001E8009F1408000A128A115B200A128A110A1247
:1001F8008A11D8200A128A11FB280A128A110C289F
:100208000A128A110D210A128A1183120313130884
:10021800080083160313141C122913290D2908003A
:0C022800F5007508831203139300080012
:04400E00C420FF3F8C
:00000001FF
