:020000040000FA
:060000000A128A110C280F
:10000800FE00030EF1000A08F2000A128A118F2876
:100018000A128A110F2883132A30FD000030FE00CF
:10002800CB30FF00203084000A128A11BC200A124B
:100038008A110A128A11D5200A128A11F700F401CE
:10004800F50183010A128A112928831603178801EA
:10005800890183160313850107308600870188010B
:1000680089010F088F3920388F008F110F148113E1
:10007800811201128111073081040C30831203139D
:10008800810006308316031396000730950083120B
:10009800031385012308870088018B178B168B159E
:1000A8000B120B100B1108308600F701F70A03300A
:1000B800F3007308F6007708890003307606031DFD
:1000C800662867286C2823088700083086005F2880
:1000D80002307606031D71287228772822088700C7
:1000E800083086005F287603031D7B287C2881283A
:1000F80021088700103086005F28200887002030FC
:1001080086000330F3007308F600F701F70A5F284A
:100118000A128A110C280B1C922893289C288312F7
:100128000313060886000230F0007008F7000B1071
:100138000B1D9F28A028B12802307706031DA5288B
:10014800A628AC280130F60276088312031385002E
:100158000C308312031381000B1172088A00710E90
:100168008300FE0E7E0E09007E088A007F0882004A
:100178000A128A11B8200A128A118000840A040817
:100188007D0603190034FF0A0319FE0ABC283F3410
:1001980006345B344F3466346D347D3447347F34F1
:0401A8006734013483
:04400E00C430FF3F7C
:00000001FF
