:020000040000FA
:060000000A128A110C280F
:10000800FE00030EF0000A08F1000A128A11E12F1F
:100018000A128A110F28FA01FB0183120313D00177
:10002800D101D201D301D401D501D601D701D8011C
:10003800D901DA01DB01DC01DD01DE0183010A12ED
:100048008A11872B8312031329088039AE002E08E2
:10005800B3002908AE002E07AF002F08B900A81F6B
:100068003628372838283914390803193C283D28F8
:100078004C28390A031D412842284A280030A90083
:100088000030A8000030A7000030A600A8175428A8
:100098000030A9000030A8000030A7000030A600FA
:1000A8002D088039AE002E08B3062D08AE002E07A5
:1000B800AF002F08B400AC1F6228632864283414EA
:1000C80034080319682869287828340A031D6D281C
:1000D8006E2876280030AD000030AC000030AB0050
:1000E8000030AA00AC1780280030AD000030AC000A
:1000F8000030AB000030AA00340803198428852892
:100108008A283908031D89288A2893280030A900DD
:100118000030A8000030A7000030A600862B260873
:10012800AE002E08F2002C080A128A15D7270A12E8
:100138008A11730883120313BF007208BE003E08B9
:10014800AE00AF01B001B1013108B8003008B70006
:100158002F08B6002E08B5003F08AE00AF01B00169
:10016800B1013108BD003008BC002F08BB002E08C3
:10017800BA002708AE002E08F2002B080A128A15CA
:10018800D7270A128A11730883120313BF00720853
:10019800BE003E08AE00AF01B001B1012E08B507A0
:1001A8002F0803110318013E0319DB28B60730088E
:1001B80003110318013E0319E228B7073108031198
:1001C8000318013E0319E928B8073F08AE00AF013C
:1001D800B001B1012E08BA072F0803110318013E18
:1001E8000319F728BB07300803110318013E031948
:1001F800FE28BC07310803110318013E031905291D
:10020800BD072808AE002E08F2002A080A128A152F
:10021800D7270A128A11730883120313BF007208C2
:10022800BE003E08AE00AF01B001B1012E08B5070F
:100238002F0803110318013E03192329B6073008B4
:1002480003110318013E03192A29B70731080311BE
:100258000318013E03193129B8073F08AE00AF0162
:10026800B001B1012E08BA072F0803110318013E87
:1002780003193F29BB07300803110318013E03196E
:100288004629BC07310803110318013E03194D29FB
:10029800BD070830AE000310B50DB60DB70DB80D8B
:1002A800AE0B4F292708AE002E08F2002A080A12C2
:1002B8008A15D7270A128A11730883120313BF00FD
:1002C8007208BE003E08AE003F08AF00B001B101A1
:1002D8002E08B5072F0803110318013E03197529C5
:1002E800B607300803110318013E03197C29B70724
:1002F800310803110318013E03198329B80726089A
:10030800AE002E08F2002B080A128A15D7270A1207
:100318008A11730883120313BF007208BE003E08D7
:10032800AE003F08AF00B001B1012E08B5072F0895
:1003380003110318013E0319A229B6073008031157
:100348000318013E0319A929B70731080311031837
:10035800013E0319B029B8070830AE000310B50DE7
:10036800B60DB70DB80DAE0BB2292608AE002E0893
:10037800F2002A080A128A15D7270A128A11730866
:1003880083120313BF007208BE003E08AE003F0888
:10039800AF00B001B1012E08B5072F0803110318EB
:1003A800013E0319D829B607300803110318013E86
:1003B8000319DF29B707310803110318013E031990
:1003C800E629B8072708AE002E08F2002C080A1202
:1003D8008A15D7270A128A11730883120313BF00DC
:1003E8007208BE003E08AE003F08AF00B001B10180
:1003F8002E08BA072F0803110318013E0319052A0E
:10040800BB07300803110318013E03190C2ABC0767
:10041800310803110318013E0319132ABD072808E0
:10042800AE002E08F2002B080A128A15D7270A12E6
:100438008A11730883120313BF007208BE003E08B6
:10044800AE003F08AF00B001B1012E08BA072F086F
:1004580003110318013E0319322ABB0730080311A0
:100468000318013E0319392ABC0731080311031880
:10047800013E0319402ABD072808AE002E08F200E5
:100488002C080A128A15D7270A128A1173088312B0
:100498000313BF007208BE003E08AE003F08AF005D
:1004A800B001B10108300310AE0DAF0DB00DB10DA4
:1004B800FF3E031D572A2E08BA072F0803110318F9
:1004C800013E0319682ABB07300803110318013ECF
:1004D80003196F2ABC07310803110318013E0319D9
:1004E800762ABD073508AE003608AF003708B000D9
:1004F8003808B10018300310B10CB00CAF0CAE0CBA
:10050800FF3E031D7F2A2E08BA072F080311031880
:10051800013E0319902ABB07300803110318013E56
:100528000319972ABC07310803110318013E031960
:100538009E2ABD070830AE000310B50DB60DB70DE5
:10054800B80DAE0BA02A39083407AE00AF01AF0DC5
:100558002E08823EBE002F080318013EFF3EBF0052
:10056800D22A0130AE000310BA0DBB0DBC0DBD0D73
:10057800AE0BB72AB81FC12AC22AC32A3A140130BF
:10058800AE000310B50DB60DB70DB80DAE0BC52AEC
:10059800FF30BE070318BF0AFF30BF07BC1FD52AAC
:1005A800D62AB52AB401B81FDA2ADB2AF72AFF307F
:1005B8003505AE00FF303605AF00FF303705B00017
:1005C8007F303805B100310830042F042E04031998
:1005D800EE2AEF2AF22AB401B40AF72A3A1CF52ABD
:1005E800F62AF72AEF2A34080319FB2AFC2A2D2BAE
:1005F8000130BA07003003180130BB070030031878
:100608000130BC07003003180130BD073D1C0D2B1D
:100618000E2B2D2B3A08AE003B08AF003C08B0006B
:100628003D08B1000130B200310DB10CB00CAF0C77
:10063800AE0CB20B182B3108BD003008BC002F08D7
:10064800BB002E08BA000130BE070318BF0A0030ED
:10065800BF073F08803AFF0080307F02031D362B1A
:10066800FF303E02031C392B3A2B452B7F30831277
:100678000313BD008030BC000030BB000030BA005E
:100688007A2B831203133F08803AFF0080307F02E1
:10069800031D502B01303E020318532B542B602BA3
:1006A800003083120313BD000030BC000030BB00D3
:1006B8000030BA00B3017A2B831203133E08AE0050
:1006C8002E08B900FF30BA05FF30BB057F30BC05E6
:1006D8000030BD05391C712B722B732BBC173908E0
:1006E800AE0003102E0CAF002F08BD003308AE007B
:1006F8002E08BD043D08A9003C08A8003B08A70037
:100708003A08A60008000A128A11A6270A128A11B6
:10071800831203130711033083120313CC0097309D
:10072800CB00CB0B952BCC0B952B831203135708BF
:100738000A128A158A270A128A110A128A1590271C
:100748000A128A1183120313CB004B08D900033015
:1007580083120313CC009730CB00CB0BB12BCC0BFF
:10076800B12B8312031357080A128A158A270A1213
:100778008A110A128A1590270A128A118312031302
:10078800CB004B08D800033083120313CC009730FA
:10079800CB00CB0BCD2BCC0BCD2B0330831203130B
:1007A800CC009730CB00CB0BD72BCC0BD72B83129D
:1007B8000313071559088600580888005908CB0004
:1007C800CC01CD01CE014E08F5004D08F4004C08CF
:1007D800F3004B08F20001300A128A11A9250A1207
:1007E8008A11750883120313AD007408AC007308EE
:1007F800AB007208AA003C30A900A030A800A530C0
:10080800A7002730A6000A128A1126200A128A1188
:10081800831203132908C3002808C2002708C1004F
:100828002608C0000A128A1165260A128A11831244
:1008380003134008CF004F08D5005808CB00CC015F
:10084800CD01CE014E08F5004D08F4004C08F30028
:100858004B08F20001300A128A11A9250A128A11DE
:10086800750883120313AD007408AC007308AB005D
:100878007208AA003C30A900A030A800A530A70043
:100888002730A6000A128A1126200A128A1183121A
:1008980003132908C3002808C2002708C100260836
:1008A800C0000A128A1165260A128A1183120313DC
:1008B8004008CF004F08D4005603031D642C652C54
:1008C8008C2B1430F2008030F3000A128A15AF27FF
:1008D8000A128A111C3083120313CB004B08A6009E
:1008E8005508CC00CD014C08A7004D08A8005A3087
:1008F8000A128A11BF240A128A115A30F2000030F3
:10090800F3000A128A15AF270A128A110B30F20077
:100918008030F3000A128A15AF270A128A1125308F
:1009280083120313CB004B08A6005408CC00CD015A
:100938004C08A7004D08A8005A300A128A11BF2493
:100948000A128A115A30F2000030F3000A128A158E
:10095800AF270A128A112130F2008030F3000A1200
:100968008A15AF270A128A1183120313D6018C2B1A
:100978000A128A110C2883120313B1002730A90028
:100988002908AC00922D253032060319CC2CCD2C29
:10099800D92C3208A9003108840029088313800063
:1009A8000130A9002908B107922DAD010130A60731
:1009B800FF30260784000A128A150A200A128A11B3
:1009C800B200A900AA012A08003A0319EC2C922DBA
:1009D8002908003A0319A42D643A0319F72C0D3A93
:1009E8000319F72C922D2C08840083130008AF00FC
:1009F800840A0008B0000230A9002908AC07B01F1B
:100A0800062D072D102D0330A9002908AD04AF09C4
:100A1800B009AF0A0319B00AB201B20A3208A90034
:100A28002907013E84000A128A150A200A128A112F
:100A3800AA000A128A150A200A128A11AB002B088A
:100A48003002031D292D2A082F0203182C2D2D2DC5
:100A58002E2D382D0130A9002908B207053032069D
:100A6800031D372D382D122D2D08033903193D2D5F
:100A78003E2D492D2D30A900310884002908831303
:100A880080000130A9002908B1073208A900290807
:100A9800AE00892D0A30A0000030A1002E08A90060
:100AA8002907013E84000A128A150A200A128A11AF
:100AB800F2000A128A150A200A128A11F300300875
:100AC800F5002F08F4000A128A1126270A128A1143
:100AD800730883120313A3007208A2000A128A1172
:100AE8006A270A128A11831203132008303EAA00CB
:100AF8002A08B2003208A9003108840029088313A3
:100B080080000130A9002908B107FF30A900290891
:100B1800AE072E0A031D912D922D4E2D0130A607EA
:100B2800FF30260784000A128A150A200A128A1141
:100B3800A9002908B2003208031DA32DA42DC72C33
:100B48003108840083138001080083120313A00076
:100B580020080319B02DB12DC52DF51FB42DB52DC5
:100B6800C52D7209A2007309A3007409A4007509B0
:100B7800A500A20A0319A30A0319A40A0319A50ABE
:100B8800CD2D7508A5007408A4007308A300720889
:100B9800A2007508740473047204031DD42DD52DA6
:100BA800DE2D0030F5000030F4000030F300003096
:100BB800F200642E9630F6007608A100F02D013080
:100BC800F6007608A10701300310A50CA40CA30CAD
:100BD800A20CFF3E031DE82DFE302505031DF52D53
:100BE800F62DE32D122E0130F6007608A10701300C
:100BF800A207003003180130A307003003180130A2
:100C0800A407003003180130A50701300310A50C14
:100C1800A40CA30CA20CFF3E031D0A2EFF302505D1
:100C2800031D172E182EF72D242E0130A102013096
:100C3800F6000310A20DA30DA40DA50DF60B1D2E95
:100C4800A41B272E282E2E2E0230210203182D2E0B
:100C58002E2E192E2118312E322E3A2EFF30A205B3
:100C6800FF30A3057F30A405FF30A5050310A10CB4
:100C78002108F600F701F801F90118300310F60D04
:100C8800F70DF80DF90DFF3E031D422E7608A2045C
:100C98007708A3047808A4047908A5042008031990
:100CA800562E572E5C2EF51F5A2E5B2E5C2EA5173E
:100CB8002508F5002408F4002308F3002208F200B0
:100CC8000800031083120313420D430DC4004408A7
:100CD800CA004A08031D712E722E7B2E0030C300F5
:100CE8000030C2000030C1000030C000E02E4008D3
:100CF800C4004108C5004208C6004308C7001F30A9
:100D08000310C70CC60CC50CC40CFF3E031D842E73
:100D18004408C8004808C900C217FF30C005FF30A2
:100D2800C105FF30C2050030C3059630CA02CA1F8C
:100D38009E2E9F2EB92E4A08803A973E0318A52E5C
:100D4800A62EA72E722E01300310C30CC20CC10CA4
:100D5800C00CFF3E031DA82E0130C4004408CA077A
:100D6800031DB72EB82EA72ED02E20304A02031C02
:100D7800BE2EBF2ECB2E722E0130C4000310C00D24
:100D8800C10DC20DC30DC40BC22E0130CA024A08E0
:100D9800031DCF2ED02EC02E49080319D42ED52ED0
:100DA800E02EC009C109C209C309C00A0319C10A52
:100DB8000319C20A0319C30A0800831203139817F8
:100DC8008316031318121813831203131813FE2E15
:100DD8001930831603139900181583160317871102
:100DE8000B2F0C3083160313990018118316031761
:100DF80087110B2F7308003A0319032F0B2F720862
:100E0800043A0319EC2E0C3A0319F52E0B2F740330
:100E18007504031D102F112F152F83160313981611
:100E2800182F83160313981276037704031D1D2FBA
:100E38001E2F222F831203131816252F8312031334
:100E480018120800F701F8017208730403192D2F0E
:100E58002E2F652FF901F90A3C2F01300310F20DEE
:100E6800F30DFF3E031D322F0130F6007608F90717
:100E7800F31F3F2F402F312F01300310F70DF80DCE
:100E8800FF3E031D412F73087502031D4D2F720885
:100E98007402031C502F512F582F7208F402730844
:100EA800031CF503F502771401300310F30CF20C60
:100EB800FF3E031D592F0130F902031D642F652FD2
:100EC800402F7808F3007708F20008008312031314
:100ED800200821040319712F722FA12FA501A50A3B
:100EE800802F01300310A00DA10DFF3E031D762FAA
:100EF8000130A4002408A507A11F832F842F752F74
:100F080021082302031D8A2F20082202031C8D2F8B
:100F18008E2F942F2008A2022108031CA303A302EA
:100F280001300310A10CA00CFF3E031D952F0130CA
:100F3800A502031DA02FA12F842F2308A10022089A
:100F4800A00008008316031788018901831603137C
:100F58008501860190308700880183120313D70129
:100F6800FF3085000830F2000030F3000130F40053
:100F78000030F5000130F6000030F7000A128A113F
:100F8800E1260A128A117030831603138F048F1119
:100F98000F14F201F301F40120300A128A1599277F
:100FA8000A128A110B17831603138C168312031364
:100FB8008C128B17D601D60A0800831203138C1ED5
:100FC800E62FE72FF22F30301A06031DEC2FED2FF6
:100FD800EF2FD601D60A1A0885008C1271088A00EC
:100FE800700E8300FE0E7E0E090083160313141C78
:100FF800FE2FFF2FF92F0800FF1B0A2883137F18E5
:1010080083170008840A0319FF0A080008308A00B9
:101018000408840A82070034013400340A34003496
:1010280064340034E8340334103427342034503422
:101038006F347434203432343A3420340034503429
:101048006F347434203431343A3420340034253445
:1010580064345634203400340D34203400340034E1
:081068002534643456340034D1
:101F1400F200720883120313930008000A128A1154
:101F2400F9270A128A158312031313080800F5000F
:101F3400831603138712751DA02FA12FA52F7408D4
:101F440094008715A92F72087404940087117508EA
:101F540073048312031394000800C62F7308FF0050
:101F6400720884000A128A1500200A128A15990040
:101F740083160313981CBF2FC02FBA2F0130F2070A
:101F84000318F30A0030F307730883120313FF00E6
:101F9400720884000A128A1500200A128A15003A6F
:101FA400031DD52FD62FB02F080083120313A400CE
:101FB400A001A1017208F400F5017408A2007508DB
:101FC400A300241CE62FE72FED2F2208A0070318F7
:101FD400A10A2308A10701300310A20DA30DFF3E9F
:101FE400031DEE2F0310A40C2408031DFA2FFB2F4E
:0C1FF400E32F2108F3002008F200080091
:04400E00C420FF3F8C
:00000001FF
